:020000040000FA
:10000000F0090020650100004513000047130000BF
:1000100000000000000000000000000000000000E0
:100020000000000000000000000000005713000066
:1000300000000000000000005B1300005D130000E2
:100040009F260000AF260000BF260000CF2600003C
:100050000000000000000000713A00007301000081
:100060007301000000000000730100007301000034
:1000700073010000730100002124000073010000DF
:10008000232800000000000073010000832100000D
:1000900000000000730100007301000089360000B9
:1000A00073010000730100007301000000000000F4
:1000B000E9350000730100007301000073010000C6
:1000C00000F002F800F03EF80CA030C80838241800
:1000D0002D18A246671EAB4654465D46AC4201D180
:1000E00000F030F87E460F3E0FCCB6460126334274
:1000F00000D0FB1AA246AB4633431847D85900003C
:10010000F8590000103A02D378C878C1FAD85207DB
:1001100001D330C830C101D504680C6070470000BD
:100120000023002400250026103A01D378C1FBD813
:10013000520700D330C100D50B6070471FB51FBDFB
:1001400010B510BD05F02CFA1146FFF7F7FF02F0CD
:100150007FFC05F044FA03B4FFF7F2FF03BC05F09F
:1001600079FA000006480047FEE7FEE7FEE7FEE7F3
:10017000FEE7FEE703480449044A054B70470000C8
:10018000C1000000F0010020F0090020F00500206F
:10019000F005002010B501225103A04801F05AFBE0
:1001A0000022012149039D4801F054FB10BD10B508
:1001B00000220268FF2424011346A3431A464C6818
:1001C0000B6823438C6823431A43026010BD00214F
:1001D000016081604160704710B5024600205068A0
:1001E000C00AC0024C680B6823438C682343184341
:1001F000506090688A4B18400C69CB6823431843C1
:10020000906010BD0021016041608160C1600161AA
:100210007047002904D0026801231A43026003E0FA
:100220000268520852000260704730B50468072522
:100230002D02AC43046004680C430460846801250B
:100240002D04AC4384608468144384608468FF2573
:100250002D02AC43846084681C43846030BD016817
:100260000222114301607047014600200A68022300
:100270001A40002A01D0012000E000207047002928
:1002800005D0426801239B021A43426004E04268A1
:1002900001239B029A4342607047002A03D083687F
:1002A0000B43836002E083688B43836070470029BF
:1002B00005D002680123DB031A43026004E00268F0
:1002C0000123DB039A4302607047002905D042688E
:1002D00001239B029A43426004E0426801239B028F
:1002E0001A43426070470146C86A80B270470246AE
:1002F000002901D1D0687047FF200130814201D12F
:100300001069F8E701204002814201D15069F2E70B
:1003100003200002814201D19069ECE701208002B4
:10032000814201D1D069E6E705200002814201D176
:10033000106AE0E703204002814201D1506ADAE707
:1003400007200002814201D1506AD4E70020D2E7A1
:1003500002465163002070470246916300207047B7
:100360000346002A03D058680843586002E05868E2
:10037000884358600020704710B50246002050683E
:100380001F2464010346A343184640094001034665
:100390000B431846506010BD002A03D0436C0B433A
:1003A000436402E0436C8B4343647047002905D0EB
:1003B00042680123DB021A43426004E042680123E1
:1003C000DB029A4342607047002905D0426801234E
:1003D000DB031A43426004E042680123DB039A43D3
:1003E000426070470146086B704702460020D36C9C
:1003F0000B40002B01D0012000E000207047024696
:100400000020136D0B40002B01D0012000E00020E4
:100410007047826C0A43826470470000000002400B
:10042000FF00FEFF7047002203689AB2F94B984222
:1004300002D0F94B984203D1F84B1A404B881A432B
:10044000F44B984202D0F44B984203D1F44B1A403B
:10045000CB881A4302608B88C3620B888362ED4BA2
:10046000984202D0EC4B984201D10B7A03630123EE
:100470004361704770B5002400220023056AE74EEF
:100480006F3635400562056AAAB24568ABB2856928
:10049000ACB2E24D2C40B51E2C400D882C43751E8D
:1004A0002A400D892A434D882A43DA4DA84202D0BA
:1004B000D94DA84212D1D94D68352A404D892A43D9
:1004C000D64D6C352A408D882A43D44D903D2B4023
:1004D000D44D2B408D892B43CD892B4343608461C0
:1004E000CD884563026270BD70B5002400220023F0
:1004F000056ACA4E603635400562056AAAB245688B
:10050000ABB28569ACB2C84D2C40C54D2C400D78BE
:100510002D062D0C2C43C14D50352A400D892D053B
:100520002D0C2A434D882D052D0C2A43B94DA84288
:1005300002D0B94DA84219D1B84D103D2A404D897D
:100540002D052D0C2A43B54D30352A408D882D05BB
:100550002D0C2A43B54D2B40B54D2B408D89AD0454
:100560002D0C2B43CD89AD042D0C2B4343608461AE
:10057000CD888563026270BD70B50024002200231F
:10058000056AA64E903E35400562056AAAB24568E6
:10059000ABB2C569ACB2A14D2C40A04D6D352C401D
:1005A0000D882C439F4D2A400D7A2D062D0C2A4391
:1005B0008D782D062D0C2A43964DA84202D0964DDB
:1005C000A84217D19A4D2A408D7A2D062D0C2A4328
:1005D000964D2A400D792D062D0C2A43954D2B4022
:1005E000954D2B408D892D052D0C2B43CD892D0547
:1005F0002D0C2B434360C461CD88C563026270BD7E
:1006000070B5002300220024056A8A4E3540056239
:10061000056AAAB24568ACB2C569ABB2824D2B403F
:100620007F4D2B400D782D062D0C2B43824D2A40FB
:100630000D7A2D072D0C2A438D782D072D0C2A437A
:10064000744DA84202D0744DA84205D17B4D2C4078
:100650008D89AD052D0C2C434460C361CD880564A4
:10066000026270BDC269764B1A40C261C2690B0654
:100670001B0C1A43C2617047F8B50C4600250021D7
:1006800000260096066A6B4F3E400662C669B5B208
:10069000066AB1B22607360C00966A4E3540160639
:1006A000360C35431E07360C35435A4EB04202D045
:1006B000594EB04207D1604E314001273F03009EA2
:1006C0003E43314305E0604E314001263603264368
:1006D0003143C5610162F8BDC269504B64331A40B1
:1006E000C261C2690A43C2617047F8B50C46002571
:1006F000002100260096066A484F903F3E40066261
:10070000C669B5B2066AB1B22606360C0096434EEB
:10071000833E35401E05360C164335433D4EB042F0
:1007200002D03D4EB04207D13E4E3140FF27013747
:10073000009E3E43314305E0444E3140FF260136E2
:1007400026433143C5610162F8BD82693C4B1A40C2
:10075000826182690B061B0C1A4382617047F8B5EF
:100760000C460025002100260096066A2B4F6037B4
:100770003E4006628669B5B2066AB1B22605360CFD
:100780000096304E35401E07360C35431606360CA3
:100790003543204EB04202D01F4EB04207D11F4E0B
:1007A000503631401027009E3E43314305E01B4E3A
:1007B000303E314010262643314385610162F8BD49
:1007C0008269164B64331A40826182690A438261EE
:1007D0007047F0B50C4600250021066A0F4F6F37B1
:1007E0003E4006628669B5B2066AB1B20B4E833EE0
:1007F00035401E05360C16433543064EB04202D036
:10080000054EB04224D1054E6E36314001262643B6
:10081000314322E000100040003C00408FFF000008
:10082000FFFC0000FFFD0000FF8F0000FFFB000049
:10083000FFF70000FFEF0000FFDF0000FFBF000038
:10084000FFF30000FF0C0000FF7D0000FFF500003B
:10085000F84E314001262643314385610162F0BDE7
:1008600070B505460C46F448854202D0F3488542EF
:1008700000D100E000BF208800280AD12389A28887
:1008800061882846FFF7A5FFE1882846FFF798FF13
:1008900025E0208804280AD12389A2886188284677
:1008A000FFF75DFFE1882846FFF74FFF17E020883C
:1008B00008280AD12389A28861882846FFF715FFF6
:1008C000E1882846FFF708FF09E02389A2886188AC
:1008D0002846FFF7D1FEE1882846FFF7C3FE70BD2A
:1008E000F8B505460C46002601276088002801D18E
:1008F000022600E00026A088012801D1022700E09E
:1009000001272088002814D12389A28861882846DD
:10091000FFF75FFFE1882846FFF752FF23893A4639
:1009200031462846FFF71BFFE1882846FFF70DFFF9
:1009300013E02389A28861882846FFF710FFE18829
:100940002846FFF702FF23893A4631462846FFF73B
:1009500040FFE1882846FFF733FFF8BD0A884B883F
:100960001A438B881A43CB881A430B891A434B8945
:100970001A438B891A43426470470021C94381801E
:1009800000210180C18041800172704700210180F7
:1009900041808180C180018141818181C181704715
:1009A000002101804180012181800021C1800181DD
:1009B00070470021018041808180C1800181418197
:1009C00081817047002904D0026801231A43026024
:1009D00004E00268974B09331A400260704700290F
:1009E00005D0426C0123DB031A43426403E0426CEE
:1009F0005204520C4264704710B5002A03D0C368F9
:100A00000B43C36004E0C368CC43A4B22340C3607B
:100A100010BD416170470B4613438364704710B5A6
:100A2000002A03D0C3680B43C36004E0C368CC430F
:100A3000A4B22340C36010BD81687E4AD21C11401D
:100A4000816070470A460021836899B2794B663B02
:100A500019400B46134319468160704730B5044670
:100A60000D4629462046FFF7EDFFA0680721084301
:100A7000A06030BDF8B504460D4616461F46602DF1
:100A800006D13B46012231462046FFF768FE05E0CD
:100A90003B46012231462046FFF79BFE2946204671
:100AA000FFF7D0FFA06807210843A060F8BD30B56C
:100AB0000C4600218568A9B2C9B21D062D0C15434C
:100AC00025432943816030BDFFB505460E461746D4
:100AD00000243A4631462846039BFFF7E8FFA86802
:100AE00084B25448C01C044007200443514866386F
:100AF000044070200443AC60FFBDF0B504460D46D1
:100B000016461F463B46324629462046FFF7CFFF92
:100B1000A068012189030843A060F0BD81624261A1
:100B200070470A460021036899B2424B663B194060
:100B30000B461343194601607047F0B50C4600217F
:100B4000002500268768B9B28769BDB2076ABEB2C0
:100B5000384FFF1C39400F4627433946384F3D4038
:100B6000FF2702373D43334F183F3E401F053F0CE0
:100B700017433E43816085610662F0BD0A4600214D
:100B8000836999B22B4B663B19400B4613431946B8
:100B9000816170470A460021836999B2294B194047
:100BA00013061B0C1943816170470A460021C36973
:100BB00099B2204B663B19400B4613431946C1615D
:100BC00070470A460021C36999B21E4B19401306AB
:100BD0001B0C1943C1617047002904D002688023AF
:100BE0001A43026004E00268124B763B1A4002602E
:100BF0007047002904D0426804231A43426004E08D
:100C000042680C4B9B1D1A4042607047002904D07B
:100C1000426808231A43426004E04268054B9B1C6B
:100C20001A404260704700290ED0426801231A43DF
:100C300042600DE0F5FF000000100040003C004065
:100C4000FCFC0000FF8F00004268E44B1A40426049
:100C500070470A460021836999B2E04BDB1F1940B7
:100C60000B4613431946816170470A460021836988
:100C700099B2DB4B194013061B0C19438161704775
:100C80000A460021C36999B2D44BDB1F19400B46B9
:100C900013431946C16170470A460021C36999B2DE
:100CA000CF4B194013061B0C1943C16170470A460C
:100CB0000021836999B2C94BDB1E19400B461343CF
:100CC0001946816170470A460021836999B2C54B74
:100CD000194013061B0C1943816170470A46002115
:100CE000C36999B2BD4BDB1E19400B46134319462D
:100CF000C16170470A460021C36999B2B94B1940D6
:100D000013061B0C1943C16170470A460021836911
:100D100099B2B24B7F3B19400B4613431946816190
:100D200070470A460021836999B24904490C1306A9
:100D30001B0C1943816170470A460021C36999B2AF
:100D4000A64B7F3B19400B4613431946C1617047C0
:100D50000A460021C36999B24904490C13061B0CC9
:100D60001943C16170470A460021036A99B29B4B3F
:100D70005B1E19400B4613431946016270470A4631
:100D80000021036A99B2954BDB1F19400B461343B0
:100D90001946016270470A460021036A99B28F4BD7
:100DA0001F3B194013051B0C1943016270470A468B
:100DB0000021036A99B2894B7F3B194013051B0C34
:100DC0001943016270470A460021036A99B2864BB3
:100DD000194013061B0C1943016270470A46002193
:100DE000036A99B27E4B194013061B0C194301622A
:100DF00070470A460021036A99B27C4B19401307D9
:100E00001B0C19430162704730B5002301248C404C
:100E1000A3B2046ADD43ADB22C400462046A1546F5
:100E20008D40ADB22C43046230BD30B500230424A4
:100E30008C40A3B2046ADD43ADB22C400462046A64
:100E400015468D40ADB22C43046230BD70B50346EB
:100E5000002000241846183001258D40ACB21D6AD0
:100E6000E643B6B235401D62002901D0082909D1F8
:100E70004D10281805687026B543056005681543B0
:100E800005600DE00D1F2D046D0C28180568072660
:100E90003603B543056005681606360C3543056014
:100EA00070BD002904D0026802231A43026004E0E6
:100EB00002684A4B5B1E1A4002607047002904D04A
:100EC000026804231A43026004E00268434BDB1EFD
:100ED0001A4002607047002904D0426880231A43F8
:100EE000426004E042683D4B7F3B1A4042607047DD
:100EF00002683A4BDB1F1A40026002680A43026034
:100F000070474268354B6F3B1A40426042680A4363
:100F1000426070478268314B9B1F1A408260826832
:100F20000A438260704782682C4B7F3B1A40826084
:100F300082680A438260704741627047C1627047AD
:100F40004163704781637047C163704701647047B4
:100F50000268274B1A40026002680A430260704729
:100F60000146486B80B270470146886B80B270477B
:100F70000146C86B80B270470146086C80B270476A
:100F80000146486A80B270470146886A80B270475D
:100F90000246002013690B40002B01D0012000E025
:100FA00000207047CA4392B20261704730B50246D2
:100FB00000200023002415690D402B46D5680D4004
:100FC0002C46002B03D0002C01D0012000E0002093
:100FD00030BDCA4392B2026170470000FEFF0000BC
:100FE000FFF70000FFFB0000FFFD0000FFDF000037
:100FF000FFFC000010B50022026810231A400B68A5
:101000001B024C68640123438C6823431A4302602B
:1010100010BD002904D0026810231A43026003E0C7
:10102000026810239A4302607047026860239A4363
:10103000026002680A430260704741607047012104
:10104000C16070478B78002B03D0036A134303629F
:1010500002E0036A93430362CB78002B03D0436A18
:101060001343436202E0436A934343620B79002BCC
:1010700003D0836A1343836202E0836A93438362EB
:101080004B78002B03D0C3691343C36102E0C369EB
:101090009343C3610B78002B03D0036913430361AF
:1010A00002E00369934303617047000010B50446F2
:1010B0009F4884420BD1012211069E4800F0CAFBD2
:1010C0000022012109069B4800F0C4FB2BE09A484E
:1010D00084420BD101225106964800F0BBFB00224E
:1010E00001214906934800F0B5FB1CE09348844277
:1010F0000BD1012291068F4800F0ACFB00220121A8
:1011000089068C4800F0A6FB0DE08D4884420AD188
:101110000122D106874800F09DFB00220121C9066B
:10112000844800F097FB10BD002081494031886061
:10113000814940318860814940318860804940312F
:1011400088607047F0B50A4600210023002400BFE4
:1011500047E001258D402B4615681D402C469C42DA
:101160003ED1856C8F000F26BE40B543856415794E
:10117000012D02D01579022D14D1056801268E406B
:10118000B5430560056801268E4035430560456816
:1011900001268E40B5434560456896798E403543BB
:1011A000456007E01579002D04D1056801268E40C1
:1011B000B5430560C56B4F000326BE40B543C5630C
:1011C000D5794E00B540C66B3543C563056C012625
:1011D0008E40B5430564056C56798E4035430564F1
:1011E000491C0829B5D3F0BDFF2101600021017120
:1011F0000121417100218171C171704702460020B7
:10120000D3680B40002B01D0012000E00020704784
:101210000146C868C0B27047002905D0426BFF2361
:1012200001331A43426304E0426BFF2301339A43C4
:1012300042637047002A03D0436B0B43436302E0D1
:10124000436B8B4343637047002904D0826B1023A8
:101250001A43826303E0826B10239A4382637047D0
:10126000826B120912018263826B0A4382637047A8
:101270000246002093680B40002B01D0012000E0C3
:101280000020704701468868C0B27047C16270474D
:1012900001637047002A01D0C16200E0016370471A
:1012A0008160704782684A408260704730B5C36B86
:1012B0004D000324AC40A343C363C36B4D001446ED
:1012C000AC402343C36330BD10B5002A05D1436C45
:1012D00001248C402343436404E0436C01248C408C
:1012E000A343436410BD70B500230024856C0F2612
:1012F0009640B5432B4696000D46B5401D432C46FF
:10130000846470BDF0B50024002500234E07F60E5E
:101310001746B7403C46836C4E07F70E0F26BE407B
:101320001F46B7433B461E46264335468564F0BDFF
:101330000010024000000240001402400018024069
:10134000001C0240704700BFFEE700BFFEE700BF81
:10135000FEE700BFFEE77047704770477047000028
:10136000214988617047204988607047012806D16B
:101370001D494968012211431B4A516005E01A4981
:10138000496849084900184A516070471648C068C2
:101390007047AA2014490860704755201249086018
:1013A0007047AA20104908607047014600200E4A85
:1013B00012690A40002A01D0012000E00020704795
:1013C000002806D00849496802221143064A5160A4
:1013D00005E00549496802229143034A516070477C
:1013E00001200149486170470024004043480068DB
:1013F000704710B50246506802240346A3431846BE
:101400000B68184304240346A34318464B6818434B
:1014100030240346A34318468B68184340240346F0
:10142000A3431846CB68184380240346A3431846B9
:101430000B691843A4000346A34318464B6918439D
:10144000506010BD002904D0426801231A43426055
:1014500003E042685208520042607047002904D0FD
:10146000426808231A43426003E0426808239A4313
:1014700042607047002905D04268FF2301331A43B8
:10148000426004E04268FF2301339A4342607047A0
:10149000014600204A6801231B041A40002A01D09B
:1014A000012000E00020704718B5002300930022BF
:1014B00000BF43680124240423401A4623469A426D
:1014C000F7D0416118BD18B500230093002200BF7A
:1014D00043680124240423401A4623469A42F7D045
:1014E000816018BD02460020D3680B40002B01D05C
:1014F000012000E000207047016170470044004077
:10150000F848806840094001F649886008468068CC
:10151000400D400588607047F34AF44B036613465C
:101520000B438362F14B5B1E03667047EE4AEF4B41
:10153000036613460B430363EC4B5B1E0366704765
:1015400010B500230C4614432346E84C0466E64CD1
:101550001C43C462E54C641E046610BD10B5002334
:101560000C4614432346E14C0466DF4C1C434463A1
:10157000DE4C641E046610BD18B5014600230093BE
:101580000022002000BF8B6A0124240323401A4656
:10159000009B5B1C009305242403009BA34203D003
:1015A00001231B039A42EED001231B039A4201D16F
:1015B000012000E0002018BD38B502460024009448
:1015C00000230020C94C1466C74C0C43D46200BFF2
:1015D000D46A40252C402346009C641C00940525B9
:1015E0002D03009CAC4201D0402BF1D0402B01D107
:1015F000012000E00020BD4C641E146638BD38B5E3
:1016000002460024009400230020B84C1466B64C17
:101610000C43146300BF146B01252D032C4023469B
:10162000009C641C009405252D03009CAC4203D053
:1016300001242403A342EED001242403A34201D1B8
:10164000012000E00020A94C641E146638BD38B5A6
:1016500002460B460024009400210020A34C14668F
:1016600000BF546B40252C402146009C641C009414
:1016700005252D03009CAC4201D04029F1D0402922
:1016800001D1012000E00020984C641E146638BD92
:1016900030B5002200234C68A4020D68ED022C43F3
:1016A0008D686D022C434D692C43CD682D022C436F
:1016B0000D692D012C4323468B4C1C4322468B4C39
:1016C00004664263641E046630BD884A02660029CF
:1016D00002D0874A426301E0834A4263834A521E32
:1016E00002667047814A02668163521E0266704735
:1016F00010B5C36B5B0E5B06C363C36B0C06234361
:10170000C363C36B1343C36310BDC26B01235B068A
:101710009A43C263002903D0C26B1A43C26304E038
:10172000C26B01235B069A43C263704770B50346E0
:1017300000200024186A5C6B80B26B4D2843A4B271
:101740002C43012907D1002A02D00125284327E094
:101750004008400024E0022909D1002A02D00225D5
:1017600028431DE002260546B543284618E0042913
:1017700009D1002A02D00425284311E00426054699
:10178000B54328460CE0FF250135A94208D1002ABF
:1017900001D02C4304E0FF2601362546B5432C46F4
:1017A000524D1D6618625C636D1E1D6670BD0A4653
:1017B00000210B46134319464B4B19434B4B036611
:1017C00041625B1E0366704710B50A46002101693D
:1017D000072424020B46A34319460B46134319461C
:1017E000016110BD10B50A4600210169002A03D02D
:1017F00001231B03194304E0012424030B46A343E4
:101800001946016110BD0A4600210169090A090251
:101810000B4613431946016170470146086A4007A9
:10182000400F70470160704741607047002A03D045
:1018300083680B43836002E083688B438360704757
:10184000002A03D0C3680B43C36002E0C3688B4324
:10185000C3607047254B0366002A03D0436C0B43DB
:10186000436402E0436C8B434364204B5B1E03667E
:1018700070471E4A0266002903D01B4A521C82642C
:1018800001E0194A8264194A521E0266704710B577
:10189000164C641E0C432346144C0466002A03D0E5
:1018A00084691C43846102E084699C4384610F4C19
:1018B000641E046610BD10B5024600230020D369E3
:1018C0001C460C40002C01D0012000E0002010BD7F
:1018D000054A13460B431A46044B036602645B1E1B
:1018E00003667047000002400000695A9966AA55D5
:1018F0000008695A10B5012280216348FFF7AAFF4A
:10190000002280216048FFF7A5FF10BD5F4A0265F5
:10191000002904D0026801231A43026003E0026830
:10192000520852000260594A521E0265704700294F
:1019300004D042680022D243426002E002680022E2
:1019400002607047002904D0426852085200426089
:1019500003E0026801231A4302607047826812099B
:101960001201826082680A43826070478268302375
:101970009A43826082680A43826070478268C0230B
:101980009A43826082680A438260704782680323B8
:101990001B029A43826082680A438260704730B5B6
:1019A000C3684D000324AC40A343C360C3684D002B
:1019B0001446AC402343C36030BD30B503698D008D
:1019C0000724AC40A343036103698D001446AC4077
:1019D0002343036130BD02690F231B049A43026154
:1019E00002690A43026170470169012212059143AD
:1019F000016101691143016170470169012212050A
:101A000091430161704730B543698D000724AC40B4
:101A1000A343436143698D001446AC4023434361B3
:101A200030BD42690F231B049A43426142690A4355
:101A30004261704710B50022144B036583699BB265
:101A4000134C1A1993089B000B431A4682610F4BE3
:101A50005B1E036510BD10B50A4600210B4B0365E4
:101A600083699BB20A4C1919002A03D01023194329
:101A7000816104E010240B46A34319468161034BA6
:101A80005B1E036510BD0000000002409966AA5568
:101A90000000695A10B504465048844202D05048AC
:101AA000844209D1012240214E48FFF7D3FE002293
:101AB00040214C48FFF7CEFE10BD10B50022026851
:101AC0000523DB011A404C680B6823430C69234350
:101AD000CC6823438C6823434C6923438C6923439C
:101AE0001A43026010BD00218161FF210131816034
:101AF000002141600121C90201604021C16008212B
:101B00004161102101617047002904D002688023DF
:101B10001A43026003E0026880239A430260704720
:101B2000002905D0026801235B021A43026004E029
:101B3000026801235B029A4302607047002904D0C7
:101B4000026820231A43026003E0026820239A43BC
:101B5000026070470268FF2301339A430260026803
:101B60000A430260704702680123DB029A43026065
:101B70000268CB431A43026070470268D208D20061
:101B8000026002680A430260704701460868400725
:101B9000400F704741608161704701464868704757
:101BA0008160704701468868704702460020D3680C
:101BB0000B40002B01D0012000E0002070470246BE
:101BC000002013690B40002B01D0012000E0002011
:101BD0007047CA07D20F42617047000000180040EA
:101BE0000019004000000240002815DBC206D20E9A
:101BF00001219140BA4A116000BF00BF00BFBFF38E
:101C00004F8F00BF00BF00BF00BF00BF00BFBFF3CA
:101C10006F8F00BF00BF00BF704710B504460120A2
:101C2000800784420AD101221146AE48FFF712FE16
:101C300000220121AB48FFF70DFE0CE0AA488442C8
:101C400009D101220221A748FFF704FE0022022148
:101C5000A448FFF7FFFD10BDF0B58BB004460E465B
:101C6000154600272068C021884320602068012194
:101C7000490288432060A879002802D0A879022868
:101C80000AD12068A9798901084320602068297950
:101C900049020843206081E0A879012802D0A87990
:101CA00003287BD12068A979890108432060206836
:101CB0002979490208432060687900283ED00E2027
:101CC000FFF792FF0F20FFF78FFFA06901210904A2
:101CD0008843A0612968480103F04FF905910490F9
:101CE0002979481C03F041F90022804B01910090B2
:101CF00003F046F903910290059B049A02F0F0FE6E
:101D000000227B4B0791069002F0BAFE09910890E1
:101D100002F0FCFC0746384603F030FB00B201211C
:101D20000904081A7060384603F028FB00B201214C
:101D30000904081AB061E02030602FE00020A061A3
:101D4000A069012109040843A0612968480103F042
:101D500014F9059104902979481C03F006F9002232
:101D6000624B0191009003F00BF903910290059BE7
:101D7000049A02F0B5FE00225D4B0791069002F036
:101D80007FFE0991089002F0C1FC0746384603F037
:101D9000F5FA00B2401EA1690843A0610BB0F0BD86
:101DA0004B21C901016000218171017141717047AE
:101DB00010B503681024A343036001290AD1002A47
:101DC00003D003682343036008E00368494C2340C1
:101DD000036003E00368474C2340036010BD002A02
:101DE00003D003680B43036002E003688B43036086
:101DF000704710B58368FF24240223408360836802
:101E00000B438360C3682340C360C3681343C3604C
:101E100010BD10B5002A19D08B79002B02D08B7918
:101E2000012B08D1036810242343036003695B0876
:101E30005B0003610EE08B79022B02D08B79032BC0
:101E400008D103695B085B00036103E003681024A9
:101E50002340036010BD4160704701464868C0B22E
:101E60007047002904D0026808231A43026003E087
:101E7000026808239A4302607047002904D0026870
:101E800004231A43026003E0026804239A430260B9
:101E9000704710B500220B888C8823430C8923439C
:101EA0008C8923439AB2C26110BD002905D0C26952
:101EB000FF2301331A43C26104E0C2690D4BF03BBA
:101EC0001A40C26170470246002013690B40002B84
:101ED00001D0012000E00020704741617047000000
:101EE00080E100E0000002400004004060E3764131
:101EF0000000E03FEFFF00002E4901432E4AD16071
:101F0000704770B5002100230F22C478002C25D023
:101F1000294CE46807252D022C402C1B210A04249F
:101F2000631A1446CC40224644789C40214684786B
:101F3000144021430901214C03252D026419057821
:101F4000AD0061510478E506ED0E0124AC40057842
:101F50006D11AD00194EAD192C600AE00478E5064C
:101F6000ED0E0124AC40154D803506787611B60093
:101F7000AC5170BD7047002905D00F4A1269024369
:101F80000D4B1A6104E00C4A126982430A4B1A6134
:101F90007047042806D10A49096904221143084AF6
:101FA000116105E00649096904229143044A11615F
:101FB000704700000000FA0500ED00E000E100E0DD
:101FC00000E000E07047704730B587B004460D462A
:101FD00003216846018200214182218881820021FB
:101FE000C182017604A92846FEF71DFA60216846E1
:101FF00001800121418004218180C849C1800021E4
:1020000001814181FF2101318181C18169462846D9
:10201000FEF730FA00216846C18069462846FEF77F
:1020200063FA002168464181FF210131C181BB492A
:10203000C18069462846FEF79FFA00216846C180A4
:1020400069462846FEF7DCFA01212846FEF7BAFC6D
:1020500001212846FEF7C3FC07B030BDF8B50B469A
:102060000021002400250095AD4DAE4E356200BF25
:1020700017E001258D402C461D4625400095009D0A
:10208000A5420DD1856C8F000F26BE40B5438564F7
:10209000012A05D1856C8F000126BE403543856439
:1020A000491C0829E5D39E4D6D1E9E4E3562F8BD34
:1020B000FEB504460E4615467F21C905304603F09D
:1020C000E3FB01D27F26F605012C0DD19649098844
:1020D000481C03F0B5F93146019003F07DFB07463B
:1020E00003F072F9686342E0022C0DD18E49098831
:1020F000481C03F0A5F93146019003F06DFB07463B
:1021000003F062F9A86332E0042C0DD186490988F6
:10211000481C03F095F93146019003F05DFB07463A
:1021200003F052F9E86322E0082C0DD17E490988BA
:10213000481C03F085F93146019003F04DFB07463A
:1021400003F042F9286412E0402C10D17649098846
:10215000481C03F075F93146009003F03DFB7349CC
:10216000019003F0BDFB074603F02EF9E863FEBDC6
:1021700070477047704770477047704770477047A7
:10218000704710B501216A48FEF710FF002813D0F0
:102190006748406A6749086001216548FEF719FFF2
:1021A00000216348FEF70EFC002201216048FEF783
:1021B00023FC01206049087002215D48FEF7F6FE0D
:1021C00000281AD002215A48FEF703FF01205B497C
:1021D00008705748FEF7C4FE594908600846006871
:1021E000584A1268811A584802F0E0F957490860C5
:1021F000534800685349086061E004214C48FEF7E9
:10220000D5FE00281AD004214948FEF7E2FE01203D
:102210004F4908704648FEF7A7FE4949086008463E
:1022200000684C4A1268811A474802F0BFF94A49CF
:102230000860434800684749086040E008213C487E
:10224000FEF7B4FE00281AD008213948FEF7C1FE77
:102250000120424908703648FEF78AFE3849086076
:10226000084600683E4A1268811A374802F09EF913
:102270003C49086032480068394908601FE0102175
:102280002B48FEF793FE002819D010212848FEF7AE
:10229000A0FE0120344908702548FEF76DFE28494C
:1022A000086008460068314A1268811A264802F020
:1022B0007DF92F490860224800682C4908602021D8
:1022C0001B48FEF773FE002806D00120294908703C
:1022D00020211748FEF77DFE40211548FEF766FED7
:1022E000002806D001202449087040211048FEF73C
:1022F00070FE80210E48FEF759FE002806D001200E
:102300001E49087080210A48FEF763FE08480069EC
:10231000000C00040649086110BD0000B80B000065
:102320009966AA5540000240AC00002000803B4561
:1023300000100040080000200700002000000020DE
:102340000C0000202000002000366E01100000204C
:1023500001000020240000201400002002000020C2
:102360002800002018000020030000202C0000207E
:102370001C000020040000200500002006000020B2
:1023800038B5044607200002FFF7B6FD6846047022
:102390000321417081700121C170FFF7B2FD6846D1
:1023A00000F05AF838BD10B588B0044600200790F8
:1023B0000690102005904020049000200390029089
:1023C00001902148844208D101A92046FFF775FBFE
:1023D0001E492046FFF7DEFB11E005200790002094
:1023E000059001A92046FFF768FB00212046FFF772
:1023F000D1FB01212046FFF787FB08B010BD134930
:102400002046FFF7C7FB0E20FFF7BAFF0121204649
:10241000FFF794FB01212046FFF776FB00BFECE7B6
:1024200010B501210848FFF7D4FB09480088401C7B
:1024300007490880084600880649884202DB0020D8
:102440000349088010BD00000018004040A2FFFFB3
:102450003400002010270000F8B5002400210023DC
:102460000025002200920278D617B60FB618B610D3
:10247000B600941B0278D617B60FB618B110E2005A
:10248000931D4278002A00D103E04278521E9A4000
:10249000154603229A40D2430092914A03263602FF
:1024A00092198E009259009E32408D4E03273F02B2
:1024B000F6198F00F2518A4A0326360292198E00CD
:1024C00092592A43864E03273F02F6198F00F25194
:1024D000F8BD08B503204002FFF70EFD0021684655
:1024E000017001214170C170FFF70BFD6846FFF7D5
:1024F000B3FF08BD08B503204002FFF7FDFC012132
:10250000684601704170C170FFF7FBFC08BD08B55B
:1025100003204002FFF7F0FC022168460170012110
:102520004170C170FFF7EDFC08BD08B50520000241
:10253000FFF7E2FC03216846017001214170C17080
:10254000FFF7DFFC08BD1CB50021684601708170F3
:10255000C170017101214170022269466148FEF794
:1025600071FD1CBD1CB5FFF7B4FFFFF7C3FFFFF7FC
:10257000CEFFFFF7DAFF012168460170002181706C
:10258000C170017101214170082269465648FEF769
:1025900059FD042269465448FEF754FD012168465E
:1025A0000171202269465148FEF74CFD1CBD10B553
:1025B000044600F059FB60690821084000280CD04F
:1025C000A0690840002808D0E0690843E061464857
:1025D000844263D101F00DFD60E060692021084074
:1025E00000280CD0A0690840002808D0E069084302
:1025F000E0613E48844251D101F076FE4EE06069D0
:10260000C007C00F002809D0A069C007C00F00286C
:1026100004D0E06901210843E0613FE060690221E4
:102620000840002807D0A0690840002803D0E069CE
:102630000843E06132E0606904210840002807D0C7
:10264000A0690840002803D0E0690843E06125E064
:10265000606910210840002807D0A06908400028C0
:1026600003D0E0690843E06118E060694021084058
:10267000002807D0A0690840002803D0E06908437B
:10268000E0610BE0606980210840002806D0A06965
:102690000840002802D0E0690843E06110BD10B591
:1026A0000120134908700F48FFF781FF10BD10B5D6
:1026B00001200F4908700D48FFF779FF10BD10B5D4
:1026C00001200B4908700B48FFF771FF10BD10B5D2
:1026D0000120074908700448FFF769FF10BD00009A
:1026E00000E100E000100240001C02400014024023
:1026F0003600002000180240014608687047014675
:1027000008887047014608787047000010B5FFF749
:1027100029FF00217348FEF795FE734800690421E4
:1027200008437149086130BF10BD10B500216D48E4
:10273000FEF788FE6C480069042188436A490861F5
:1027400030BF10BD08B505200002FFF7D5FB1021F2
:10275000684601700421417001218170C170FFF74A
:10276000D0FB6846FFF778FE08BD10B50446002C84
:1027700009D1012204215D48FEF7C4FD00215C4817
:10278000FFF704F922E0012C09D105220321594861
:10279000FEF7B8FD21025648FFF7F8F816E0022CC4
:1027A00009D1052206215348FEF7ACFD210250480D
:1027B000FFF7ECF80AE0032C08D1052206214E4869
:1027C000FEF7A0FD21024A48FFF7E0F810BD00B572
:1027D00087B0182101A800F06DFF022001900020B1
:1027E00002903020039000200490059001204002C8
:1027F000069001A93B48FEF7FCFDFFF7A3FF3F4908
:102800003848FEF760FE3D493648FEF74DFE01218F
:102810003448FEF72FFE01213248FEF713FE07B0C1
:1028200000BD10B501212F48FEF766FE3448008830
:10283000401C3349088033480088401C31490880D7
:1028400031480078401C304908700A212E48007831
:1028500001F0B6FE002902D101202C490870142194
:102860002948007801F0ACFE002902D10120284956
:10287000087064212448007801F0A2FE002902D1EA
:10288000012024490870C8211F48007801F098FEF3
:10289000002905D101202049087000201A4908703C
:1028A0001848008819218901884217DB00BF00BF42
:1028B00000BF00BF00BFBFF34F8F00BF00BF00BF0E
:1028C00016480949C86000BF00BF00BFBFF34F8F63
:1028D00000BF00BF00BF00BF00BFFDE701201049DF
:1028E000087010BD0044004000ED00E000140240FC
:1028F000001C0040001C0240001802403FFF000086
:102900003A0000203C0000203E0000203F00002054
:102910004000002041000020420000200400FA0591
:102920004300002070B50446454D002601221146A3
:102930004448FEF7FBFE230002F093FE0504090F56
:10294000151B21004048FFF7DAFE064617E03E4817
:10295000801CFFF7D4FE064611E03B48001DFFF740
:10296000CEFE06460BE03848801DFFF7C8FE06463F
:1029700005E035480830FFF7C2FE064600BF00BF3D
:102980003605360D28463043054630482D4940313E
:1029900008622C4885622D48401E086270BD70B5E3
:1029A0000446274E0025002C05D127481030FFF79C
:1029B000A6FE054604E024481430FFF7A0FE0546B5
:1029C000ED05ED0D30462843064620481D494031AF
:1029D00008621C4806631D48401E086200BF194873
:1029E000006B0121090308400028F8D170BD14498B
:1029F0000A4602431146154A124B40331A62114AE5
:102A00005162124A521E1A62704710B50020FFF739
:102A100089FF0120FFF7C3FF0C480A4940310862D3
:102A20000848006A06498531084306490862074894
:102A3000401E0449403108620120FFF7D8FF10BD55
:102A40000000695A00000240C00000189966AA55AB
:102A50001020C043224988602248C860FFF7D5FF94
:102A600001202149087000F062F800F07BFBFFF7BD
:102A700079FDFFF7ACFE1D48FFF795FC1C48FFF7FA
:102A800092FC1C481C4908801C491B48FFF79CFA13
:102A900000F0DDF800201449087001201849087082
:102AA0001DE001F0B4FA01F0E5FC164800780028BA
:102AB00001D000F07BFA14480078002804D00020F0
:102AC0001149087000F058FB10480088002806D013
:102AD0000E480088401E0D49088000F0B6F9E0E776
:102AE00000000240E37CF3FF4C000020001800408F
:102AF00000190040B70B0000AC000020001000409F
:102B00004D00002094000020580000203C000020D0
:102B10001CB5002168460171012141718171C171AB
:102B2000022000906946F948FEF70CFB1CBD1CB55D
:102B3000002168460171012141718171C171082034
:102B400000906946F248FEF7FDFA042000906946BD
:102B5000EF48FEF7F7FA202000906946ED48FEF7AF
:102B6000F1FA00216846C171202000906946E848CA
:102B7000FEF7E8FA402000906946E548FEF7E2FAE1
:102B800001216846017100218171C1717820009096
:102B90006946E148FEF7D6FA4021DF48FEF778FBA8
:102BA0002021DD48FEF774FB1021DB48FEF770FBA7
:102BB0000821D948FEF76CFB102000906946D448E4
:102BC000FEF7C0FA1021D248FEF760FB10200090FB
:102BD0006946D048FEF7B6FACC4840308068CF4905
:102BE0000840CA494031886008468068CC4908439B
:102BF000C64940318860C74840308068FF210904D9
:102C00008843C4494031886008468068C549084304
:102C1000C04940318860C04840308068C24908409F
:102C2000BD4940318860084680688860B8484030B7
:102C30008068BE490840B6494031886008468068CF
:102C4000FF2109050843B249403188601CBDB848DE
:102C50000078002803D00420B649088003E04B2008
:102C6000C000B4490880704710B5FFF76CFC00F055
:102C700054FD0121B048FEF7E5FBFFF7E8FF10BD6A
:102C800010B5AE48007808218843AC490870002090
:102C9000AB490880AB48007880088000A9490870DB
:102CA0000020A9490870A9490870A9498870C8700E
:102CB00010219748FEF7EAFA00F0B3FF01F0A1FAFD
:102CC00010BD10B501209A490870FFF7D9FFFFF732
:102CD0001DFD10BD704770477047F8B5002000908B
:102CE000802000F05CFB0090009802F046F904465A
:102CF00022460B469748984901F0F2FE064601F03D
:102D000005FDF8BD10B501209149887000F089FFDC
:102D100040218148FEF7BAFA90480078002804D193
:102D200020217D48FEF7B2FA0CE08C48007801289B
:102D300004D110217848FEF7A9FA03E0082176486B
:102D4000FEF7A4FA0F208249C87010BD10B5FFF736
:102D5000B8FF10BD10B57C480078002854D18048D9
:102D60000078002804D07E480078401E7C49087016
:102D70007748C078002822D175488078002805D18E
:102D800010216348FEF774FA00283DD1704800888E
:102D9000002802D1FFF7DAFF36E06D480088401EB8
:102DA00080B26B490880002802D1FFF7CFFF2BE0EB
:102DB00067480088032827D101F017FA24E0644807
:102DC000C078401EC0B26249C870002812D101F01C
:102DD000F4F910214E48FEF75BFA022060490870B2
:102DE0005B48008800280FD1FFF78CFF002058496E
:102DF000C87009E05648C0780A2803D05448C07803
:102E0000052801D101F0E5F910BD10B500F046FB31
:102E1000FFF7A0FF10BD10B546480088002813D06A
:102E200044480088401E80B24249088000280BD1E7
:102E30003F480078002802D0FFF743FF04E001205C
:102E40003B490870FFF73DFF10BD10B545480078BD
:102E5000002809D144480078012805D008212C48D1
:102E6000FEF7CCF9002802D10220324908803F4801
:102E70000078002804D03D480078401E3B49087087
:102E800000F0B9FE01F0C7F939480078012804D1F3
:102E9000002037490870FFF71DFF364800780128E9
:102EA00004D1002033490870FFF715FF324800783D
:102EB000012804D1002030490870FFF70DFF2F488A
:102EC0000078012809D100202C4908702C4800887E
:102ED000401C2B490880FFF798FF10BD10B5044631
:102EE0001E480078002806D100F025FFE120800070
:102EF000174908804CE019480078012842D1E120A8
:102F0000C0001349088000F040FF41E0001002407B
:102F1000001C024000140240001802400F00FFFF96
:102F20000F10FFFFFFFF00FFFF0F00F0FF0000F09A
:102F30004D0000204A000020004400409500002081
:102F40009E0000209C00002057000020560000201A
:102F5000520000203D0AD7A3703DC440610000200C
:102F600060000020780000204E000020AB00002010
:102F70003F000020400000204100002042000020CF
:102F800048000020E12000018549088000F027FF6B
:102F900010BD10B583480078002801D0FFF7B2FEBD
:102FA0000020804908708049087010BD10B57F4826
:102FB000007800287ED17E480078512815D17848C5
:102FC0008078002808D1FFF79DFE00F067FA0028FE
:102FD0000BD101F0F2F808E0FFF752FE01F0F9F82A
:102FE000012072490870FFF732FE714800781128FD
:102FF00017D101F0EEF86B480078002811D168482D
:10300000807800280DD16B480078401CC0B2694917
:103010000870022801DD0020087066480078FFF77C
:103020005DFF6348007821280FD101F0D2F85D4898
:103030000078002809D15A488078002805D15D49D8
:10304000087008460078FFF749FF594800782228A1
:1030500010D101F0BEF85348007800280AD150483A
:103060008078002806D1012052490870084600786F
:10307000FFF734FF4E480078232810D101F0A9F85B
:103080004848007800280AD145488078002806D1B1
:1030900002204849087008460078FFF71FFF44489F
:1030A000007830280FD101F094F83E4800780028CD
:1030B00009D100E038E03A488078002803D100F0D8
:1030C000B0FD00F01EFE3A480078312813D101F01F
:1030D00074F83448007800280DD1314880780028F1
:1030E00009D100F09EFD31480078002803D1314815
:1030F0000078FFF7F3FE2E48007832282CD101F03B
:1031000050F828480078002826D1254880780028E3
:1031100022D100F086FD2548007800281CD12548E2
:103120000078FFF7DBFE17E021480078F021084027
:10313000312811D000201D49087000F0C8FD1D483D
:103140000078FFF7CBFE00201549887010211A483F
:10315000FEF79CF801F03DF8FFF779FD00201449D7
:10316000087010BD10B500F07CF900F007FD0020DC
:103170000B498870088010BD704710B500210022EF
:1031800000200E4B1A7804E00C4B1B5C5940431C8A
:10319000D8B2531E8342F7DC084CE15410BD000046
:1031A0005200002057000020560000204D00002053
:1031B0009400002061000020001C0240EA00002072
:1031C00010B50446E007C00F002804D00F220621E6
:1031D000DC48FEF797F802202040002804D00F2298
:1031E0000321D848FEF78EF804202040002804D0A0
:1031F0000F220421D348FEF785F80820204000283C
:1032000004D00F220221D048FEF77CF81020204085
:10321000002804D00F220321CB48FEF773F82020AA
:103220002040002804D00F220521C748FEF76AF885
:1032300040202040002804D00F220621C248FEF77B
:1032400061F810BD0146002000BFCA07D20F002A56
:1032500000D004E04908421CD0B20828F5DB00BFCA
:10326000704710B504462046FFF7ECFF03461B02EB
:10327000184610BD30B589B004462046FFF7F1FF6F
:1032800085B20020049001900320000205900020E8
:10329000029003900795402C01D0202C04D14020AF
:1032A00006904001089004E0002006900120C00232
:1032B000089006A9A548FCF77AFF01A9A348FCF7E6
:1032C0008BFF2046FFF77CFF002221469F48FDF739
:1032D00063F801219D48FCF79CFF09B030BD10B593
:1032E00088B00446002003900120800200902F2027
:1032F0000002049000200190029006900590079033
:1033000005A99248FCF753FF69469048FCF764FF13
:103310002046FFF755FF21468C48FDF77AF801213A
:103320008A48FCF7C4FF00218848FCF7C0FF01224F
:1033300021468648FCF7B1FF01218448FCF769FF6C
:1033400008B010BD10B504462078FFF7C8FF7F48CD
:10335000FCF785FF00BF0121C9027C48FDF745F855
:103360000028F8D07948C068608078480069A0805B
:1033700076484069E0807548806920817348C0695B
:1033800060817248006AA0817048406AE0816F489D
:10339000806A208200216D48FCF73BFF10BDF1B52B
:1033A00082B008266A4F0020019000250298FFF79E
:1033B00061FF00BF6548FCF752FF00BF6348FCF7A0
:1033C00053FF0128FAD03046711ECEB208280BDA1E
:1033D0005E48FCF788FF0446BC4200D827460198A7
:1033E000844200D301942D19002EE3D100215748C7
:1033F000FCF70FFFED1B01982D1A0521284601F05F
:10340000D5F880B2FEBD10B5034600241846FFF77C
:1034100019FF044661004F48405A10BD10B50446DC
:1034200010214948FDF732FF0F204B49C870012099
:103430004A4908704A480078844202D10020C043BB
:1034400010BD032C01D0042C02D100F051FD03E08B
:10345000022C01D100F053FD414804700020C0430C
:10346000EEE700203F4908803F49088001203F499E
:1034700008807047F8B5044600254020FFF78FFF0D
:103480000546284601F0E4FF0746214602F0A4F96C
:1034900006468B21C90501F0C1FEF8BDF0B585B027
:1034A000002700242C488078002848D03048007835
:1034B000002844D1FFF711FC04462046FFF7DAFF4D
:1034C00007462146384601F0A9FE019001F07CFE36
:1034D0000546284A284B01F053FD0391029001F064
:1034E00015F90746384601F06FFE0546234A244B7E
:1034F00002F0C6F804D80220FFF790FF05B0F0BD37
:1035000017480078022812D1384601F05DFE0546C2
:103510001A4A1C4B02F0E6F809D810480078002837
:1035200001D000F04AFEFFF734FD0020E6E70B482B
:103530000078002801D000F040FEFFF72AFD0020AF
:10354000DCE7000000180240001C0240002C004094
:10355000FFFF0000C600002052000020570000209E
:103560005600002062000020640000206600002059
:10357000600000203D0AD7A3703D0440B0726891FE
:10358000ED7CEB3FED7CF33F08B503204002FEF7F6
:10359000B3FC1C216846017000214170817001213B
:1035A000C170FEF7AEFC08BD0EB5BC200090012036
:1035B00001900F20029069461048FDF71BFDFFF7B0
:1035C000E3FF01210D48FDF738FD01210B48FDF710
:1035D00020FD20210948FDF728FD0EBD10B5012171
:1035E0000648FDF72AFD10BD10B50448FDF727FD7C
:1035F000FFF73AFB01200249086010BD0028004097
:103600006C00002008B503204002FEF775FC17216E
:10361000684601700021417081700121C170FEF780
:1036200070FC08BD10B51720002809DB00BF00BFE3
:10363000C206D20E012191401A4A116000BF00BF9C
:1036400000BFFFF7DFFF1848FDF78AFE0020FDF7F7
:103650008DFE0020FDF7B4FE1448FDF784FEFDF753
:10366000A0FEFDF79AFE1048401EFDF779FE10BD42
:1036700010B50D48FDF774FE0C48FDF774FE0A48BE
:10368000401EFDF76DFE10BD10B50748FDF768FE42
:10369000FDF7A6FE0448401EFDF762FE0120044926
:1036A000086010BD00E100E09966AA553E96000052
:1036B0007000002010B50A460146002900D110BD57
:1036C00002E000230B70491C1346521E002BF8D158
:1036D00000BFF4E710B5E6230021002207E0002236
:1036E00001E0541CA2B29A42FBDB4C1CA1B2814205
:1036F000F5DB10BD08B505200002FEF7FDFB062135
:10370000684601700221417001218170C170FEF78D
:10371000F8FB6846FEF7A0FE08BD1FB5002168460D
:10372000017381730220029001216846C1734173C5
:1037300002A9FE48FDF706FD01216846017300213C
:103740008173022002906846C1730121417302A96E
:10375000F648FDF7F7FC05220121F448FDF7D2FDFC
:1037600005220221F148FDF7CDFDE1200002009085
:1037700001216846017100214171012181716A4670
:10378000EB4901208007FEF767FAFFF7B3FF01223C
:1037900011469007FEF723FB012202214807FEF79E
:1037A0001EFB012211469007FEF702FB1FBD70B5FC
:1037B00004460D460120DF49087029462046FEF7E1
:1037C0004AFB70BDF8B507460D461646002400BFFB
:1037D000295D3846FFF7EBFF641CB442F8D3F8BD0F
:1037E000D5480088D549081AD54908807047F8B5EA
:1037F000002400250026002700200090D1480078F2
:10380000002872D0D0480778CD480088CA49098876
:103810004018CA49401A032805DC002FF1D0CB48D4
:103820000078B84261D10020C6490870C8480078C5
:103830000028E6D00020C649087000240026C348AE
:1038400000788742EED1C148007803284DDB00257F
:1038500006E0BD48405D009948400090681CC5B234
:10386000BD42F6DB00980028DCD11021B948FFF7F3
:1038700021FFB948007800287ED00120B54988731F
:1038800001242146641CB048465C36022146641C73
:10389000405C0643AF48468000256AE03046284138
:1038A000C007C00F002862D02B0001F0DAFE090625
:1038B0000E161F273E464E575F002046611CCCB2B5
:1038C000A149085CA349087150E02046611CCCB2B4
:1038D0009D49085C9F49487148E02046611CCCB274
:1038E0009949085C9B49887140E04EE02046611C84
:1038F000CCB29549085C9749C87137E02046611CF5
:10390000CCB29149085C934908810846007A0006C8
:10391000000C0881084600892146621CD4B28A4AFC
:10392000515C08438B49088120E02046611CCCB2E1
:103930008549085C8749887218E02046611CCCB232
:103940008149085C8349C87210E02046611CCCB2F2
:103950007D49085C7F49087308E00DE02046611C42
:10396000CCB27949085C7B49487300BF00BF681C32
:10397000C5B2102D92DB05E00020764988737248AD
:1039800040780871012075490870F8BD10B5744879
:10399000007800286BD067480078002867D16D4810
:1039A000807B00283DD06F480078002807D1BA21DD
:1039B0004807FFF7FCFE01206A49087057E061489C
:1039C000007800281AD16848007860490978884250
:1039D00007DB00206249087063490870614908707C
:1039E00045E0614802780078401C5F4B18705648EB
:1039F000815C01208007FFF7DAFE38E05A48007842
:103A000052490978884232DA574802780078401CD7
:103A1000554B18704C48815C01208007FFF7C7FEAA
:103A200025E050480078002807D1A5218807FFF736
:103A3000BEFE01204B49087019E04C4800784A4905
:103A4000097888420CDD484802780078401C464BD3
:103A500018704648815C01208007FFF7A8FE06E049
:103A600000203F490870404908703E49087010BD69
:103A700010B50024012080070069022108400228B7
:103A800008D1400740690843490748610020294997
:103A9000087071E0012080070069C007C00F00288E
:103AA0006AD00120800740690121084389074861E5
:103AB00024480078002805D1012022490870002000
:103AC0002249087001208007FEF7C7F90446204804
:103AD0000078002816D11D490870AA2C09D10120B0
:103AE0001B4908701C4908701D49087019498873E2
:103AF00010E0A52C0ED101201549087000201649B0
:103B0000087007E0114801780078401C0F4A1070D7
:103B10000D4844540D480078142802DB00200B495E
:103B20000870FFF75DFE0120114924E000100240FB
:103B3000001800407E000020340000201027000004
:103B40007600002078000020D60000207B000020B6
:103B500079000020FE0000207A000020580000209C
:103B60007C0000207F0000207D000020EA00002073
:103B70007400002000E0087010BD000010B518218E
:103B8000E248FFF797FD1821E148FFF793FD182160
:103B9000E048FFF78FFD1821DF48FFF78BFD10BDD0
:103BA00070B5044661786068405C60756178A068B3
:103BB000455C002D02D1E068804701E02069804724
:103BC00070BD10B50446207D002813D0607D00280C
:103BD0000DD160782178884202DB0020607002E01D
:103BE0006078401C60702046FFF7DAFF02E0607DDD
:103BF000401E607510BD10B5C848007800280FD071
:103C0000C7480068FFF7DDFFC6480068FFF7D9FF27
:103C1000C5480068FFF7D5FFC4480068FFF7D1FF2B
:103C200010BD10B50020BD4908702021C048FDF727
:103C30002FFB1021BE48FDF72BFB0821BC48FDF7E8
:103C400027FB4021BA48FDF723FBFFF797FF10BD84
:103C500010B504460120B1490870002060700120B1
:103C60002075002060702046FFF79AFF10BD10B548
:103C70004021AF48FDF70CFB10BD10B54021AC480A
:103C8000FDF704FB10BD10B52021A948FDF700FB8E
:103C900010BD10B52021A648FDF7F8FA10BD10B5EB
:103CA0001021A348FDF7F4FA10BD10B51021A0486B
:103CB000FDF7ECFA10BD10B508219D48FDF7E8FAB4
:103CC00010BD10B508219A48FDF7E0FA10BD10B5F7
:103CD000012093490968087096489149096848602D
:103CE00095488F490968886094488D490968C8607B
:103CF00093488B490968086189480068FFF7A8FF65
:103D000010BD10B501208649096808708D488449A6
:103D1000096848608C4882490968886087488049FA
:103D20000968C86086487E49096808617C4800685F
:103D3000FFF78EFF10BD10B50020774908750821E8
:103D40007B48FDF7A5FA00207249087510217848D4
:103D5000FDF79EFAFFF7BBFF012072490968087062
:103D60007A4870490968486079486E4909688860EE
:103D700078486C490968C86077486A4909680861E9
:103D800068480068FFF764FF10BD10B50020624965
:103D9000087508216648FDF77BFA00205C49087524
:103DA00020216348FDF774FAFFF791FF01205E4977
:103DB0000968087069485C490968486068485A4958
:103DC00009688860674858490968C8606648564964
:103DD0000968086154480068FFF73AFF10BD10B544
:103DE00000204B49087520215148FDF751FA002069
:103DF0004849087510214E48FDF74AFAFFF767FF5A
:103E000001204A49096808705848484909684860CB
:103E10005748464909688860564844490968C86057
:103E2000554842490968086140480068FFF710FF9B
:103E300010BD10B5FFF721FF00F0B3F910BD70B54C
:103E400006460C4615463648006806703448006839
:103E50004460334800688560384831490968C86063
:103E600046482F49096808612D480068FFF7F0FEB1
:103E70002E48006806702D48006844602B48006892
:103E800085603C4829490968C8603B48274909685A
:103E9000086126480068FFF7DBFE234800680670CB
:103EA0002148006844602048006885602D481E490C
:103EB0000968C8602C481C49096808611A480068EC
:103EC000FFF7C6FE17480068067016480068446091
:103ED0001448006885601F4812490968C8601E4878
:103EE0001049096808610F480068FFF7B1FE70BD0E
:103EF00010B5234A23490320FFF7A1FF10BD10B5D9
:103F0000214A22490220FFF79AFF10BD100100202C
:103F100028010020400100205801002080000020DE
:103F200084000020880000208C00002090000020E9
:103F300000180240C8590000CA5900006F3C000038
:103F40007B3C0000E6590000E8590000CC59000015
:103F5000CE590000873C0000933C0000D05900007F
:103F6000D25900009F3C0000AB3C0000D459000037
:103F7000D6590000B73C0000C33C0000333E0000AF
:103F8000DC590000D8590000E3590000E059000056
:103F900075480078082188437349087000207349E8
:103FA0000880734800788008800071490870704765
:103FB0006D480078042188436B49087000206D49E2
:103FC00008806D480078800880006B490870704751
:103FD00000B5FFF7EDFF6948008801210904081AC0
:103FE0006449088060480078042108435E490870ED
:103FF00000BD6248008801210904081A5B49088055
:10400000594800780821084357490870704710B58F
:104010005548007808210840002815D05848FDF779
:10402000EDF8002810D052480078C007C00F0028D3
:1040300008D04F48007802210840002802D15120C2
:1040400050490870FFF7A4FF474800780421084052
:10405000002806D04A48FDF7D1F8002801D0FFF724
:10406000A7FF08214648FDF7C9F8002839D13E4886
:10407000007808210840002831D03D480078C0076A
:10408000C00F00280ED1394800883C4909884018E3
:1040900080B2022825DD36480078012108433449E2
:1040A00008701EE03248007802210840002818D12C
:1040B0002E48008831490988401880B2FF2191318B
:1040C00088420EDD02202F4908702948007802211D
:1040D00008432749087000202449088001E0FFF7C1
:1040E00088FF04212648FDF789F800283AD11E48A8
:1040F000007804210840002832D01F480078C0070B
:10410000C00F002811D11B4800881C49098840189D
:1041100080B2022826DD184800780121084316499C
:1041200008701120174908701CE01348007802211C
:104130000840002816D10F48008810490988401807
:1041400080B23C280EDD12200E4908700A48007823
:10415000022108430849087000200649088001E050
:10416000FFF736FF10BD0000950000209E000020E4
:104170009C000020A0000020A20000203A000020A7
:10418000001C0240940000200021404A11800121BF
:10419000C1703F4949680978817000210170C16090
:1041A000704700B506203A4948703A4848603A4896
:1041B00088600846FFF7E8FF00BD00B502203449DB
:1041C000487036484860364888600846FFF7DCFF8C
:1041D00000BD00B502202E49487032484860324880
:1041E00088600846FFF7D0FF00BD00B50A202849C7
:1041F00048702E4848602E4888600846FFF7C4FF84
:1042000000BD10B500202249C8702A4A0021402074
:10421000FDF74EFF10BD10B51D48C078012834D100
:104220001B488078002830D019488078401EC0B2E2
:1042300017498870002828D108460078401CC0B271
:1042400008704978884208DB00201149C870194A73
:1042500000214020FDF72CFF17E00D4840680C4975
:104260000978405C0A498870084680680978405C93
:10427000012805D10F4A10494020FDF719FF04E03D
:104280000C4A00214020FDF713FF10BD3C00002028
:1042900070010020065A00000C5A0000025A00006B
:1042A000045A0000EA590000EC590000EE590000E1
:1042B000F8590000001000409A99993E10B50E215F
:1042C000AE48FFF7F7F90020AD49887010BD10B572
:1042D0000E21AA48FFF7EEF90321A948FFF7EAF9F2
:1042E0000020A849088010BD10B50024A648C06869
:1042F00020210840002836D01021A348FCF7C6FF33
:10430000A248FDF74FFC84B29C48808800199B4965
:10431000088108460089E22802DAFFF7CFFF10BDC6
:104320009648007B00280CD194480089984988421F
:1043300002DDFFF7C3FFF2E7012090490873032075
:10434000087001200004001B8C49488091480088B7
:104350009149081A8B49088008460088002801D135
:104360000120088084E010218748FCF791FF8748EE
:10437000FDF718FC84B201200004001B7F498880EF
:1043800008460078002802D10220087070E07B48BF
:104390000078032803D079480078042868D177484A
:1043A000007B002864D07548408800197349C88094
:1043B0000846C0887949884202DBFFF77FFFAEE7F5
:1043C0006E48C0887649884206DB00206B49C87277
:1043D000887204200870A2E768480078042847D152
:1043E0006648C0886E49884202DBFFF767FF96E7A0
:1043F0006248C0886649884209DB6048C07A40103C
:104400005E49C8720846807A401C887210E05B489A
:10441000C088E2280ADB5948C07A401080305749EA
:10442000C8720846807A401C887201E0FFF746FF98
:104430005248807A08281BDB51488078002804D134
:104440004E48C07A4E49887069E74C48C07A4C495A
:104450008978884208D14948C07A49494870012082
:104460000870FFF72BFF03E04448C07A4449887086
:1044700000BF54E770B500240025414800780128AA
:1044800056D14848007800284ED13D484078012850
:1044900006D15120444908700A204249087040E082
:1044A00037484078022806D121203F4908700A2069
:1044B0003C49087035E032484078042806D1222073
:1044C000394908700A20374908702AE02C4840789A
:1044D000082806D12320344908700A203149087081
:1044E0001FE0274840780F2806D130202E49087059
:1044F0000A202C49087014E021484078F02806D1A1
:104500003120294908700A202649087009E01C4812
:104510004078FF2805D13220234908700A2021491C
:10452000087000201649887000201549087023E0A3
:104530001448008800281FD01348C0682021084074
:10454000002819D0134804880E4800880019124921
:10455000401A85B20F2D0FDD10210B48FCF798FE95
:104560000E210648FFF7A6F800200549087088705C
:10457000044908800B49087070BD000080010020CC
:10458000A8000020A60000200014024000190040EE
:10459000A50200003400002010270000D71E0000F4
:1045A000051B0000AB00002094000020002203093E
:1045B0008B422CD3030A8B4211D300239C464EE03E
:1045C00003460B433CD4002243088B4231D30309FA
:1045D0008B421CD3030A8B4201D394463FE0C309AC
:1045E0008B4201D3CB01C01A524183098B4201D3C4
:1045F0008B01C01A524143098B4201D34B01C01AAF
:10460000524103098B4201D30B01C01A5241C30826
:104610008B4201D3CB00C01A524183088B4201D395
:104620008B00C01A524143088B4201D34B00C01A81
:104630005241411A00D201465241104670475DE096
:10464000CA0F00D04942031000D340425340002219
:104650009C4603098B422DD3030A8B4212D3FC22C2
:10466000890112BA030A8B420CD3890192118B4241
:1046700008D3890192118B4204D389013AD0921157
:1046800000E08909C3098B4201D3CB01C01A524112
:1046900083098B4201D38B01C01A524143098B42DB
:1046A00001D34B01C01A524103098B4201D30B01C4
:1046B000C01A5241C3088B4201D3CB00C01A5241E9
:1046C00083088B4201D38B00C01A5241D9D24308D0
:1046D0008B4201D34B00C01A5241411A00D201460D
:1046E000634652415B10104601D34042002B00D577
:1046F0004942704763465B1000D3404201B5002039
:10470000C046C04602BD7047704770470246C80F9A
:10471000C00781434B0030B54B405B009B0D20D060
:104720001923DB06C91801231B05994220DB03244A
:10473000A40704251346AB400BD3002B04D1EB0692
:1047400013409B00E34204D40124640700231219A0
:104750005941FF231B0599420BD2C9000143500F59
:1047600009E0CB0204D501430803024305D0054804
:1047700030BDFF21C905084330BD084607210905A2
:10478000884330BD0000C07FF0B50C46871A9C41BD
:104790000D46861A9D4103D2C01BA141D219634127
:1047A0000D0D1F0DC94EEC1BAE435CD07F057F0D78
:1047B0000026002F51D02D05AC46A943DD02012370
:1047C000ED0A1B051D4320231B1B24D41746E7407D
:1047D000381871412F46E740CC199D4028183146C2
:1047E00061410C0D27D161449A4013D50023401C30
:1047F000594152000ED14008400001224B005205A1
:10480000D34207D305204007C14201D5B04900E09B
:10481000B0493046F0BD6B00002A00D001229A1842
:104820001F23203C1B1B01D5002302E0E540281874
:1048300071410C0DD7D0012424050919C407CD07F7
:1048400040084908E40F28436144002CD5D00024D7
:10485000401C61419A40D0D1CDE76A05520DD9D1B3
:10486000C90FC907D5E79C4D4E00002801D001248F
:1048700000E0002434195F00002A01D0012600E086
:104880000026BE19954FAC420CD8AE420AD8B442AD
:1048900006D001256D05EC42BCD010461946F0BD8E
:1048A0009942FCD000203946F0BDF0B51FB40C464B
:1048B0000F46811A9F412546861A9D4106D2012541
:1048C000ED076F40401ABC4152187B41210D1E0D6F
:1048D0008D1BAC467D4D8D437ED075056D0D7CD016
:1048E0000D05AE46AC431B031B0B794D52429D4157
:1048F000202366469B1B14D31746F7403818002622
:104900000090744160462F460741E41900989D408D
:104910002818664116D4714671189A4025D501238E
:1049200020E093182A466A415200002B00D0521C06
:104930001E23203E9B1B002B61DD3541EE172818FE
:104940006641E8D5001876415B1C9A4000D3401CB4
:104950004B05F3181524E34010D3002B52D07146B9
:104960007118D30FC01802D3491C05B0F0BD012344
:10497000DB079A42F9D140084000F6E701225205D0
:10498000B21801D1002853D00123CC0ADB0299438D
:10499000891E002A08D1020C03D0020C0004103931
:1049A00002E00246002020390023550B05D11202F7
:1049B0000823550B01D152010D23550C01D11201D1
:1049C0001B1DD50C01D192009B1C150D01D152006D
:1049D0005B1C2025EE1A01E02CE022E00546F540A4
:1049E00015439840CA1AE10769181305C918002A27
:1049F000BBDA032040070818C10FC9070FE0714652
:104A00006118B2E7F10740080843711071444A0089
:104A10000CD001235B059A42A7D2C90FC907002019
:104A2000A3E74905490D26D1002001E00028F4D173
:104A300000219AE7284D6600002801D0012100E0FE
:104A4000002171185F00002A01D0012600E0002635
:104A5000BE19224FA94210D8AE420ED8B14208D09A
:104A600001256D05E94206D01946A80241401046CD
:104A70007BE79C4201D0214677E70020394674E766
:104A800010B50C465C4005D50124E4076340FFF7F0
:104A90000CFF10BDFFF778FE10BD30B40C465C4033
:104AA00004D50124E407634030BC6DE630BCFCE66D
:104AB00070B50124E40761400D465D4002D4FFF764
:104AC00063FE70BD6340FFF7F0FE70BDFF0700009E
:104AD0000000F0FF0000F07F0000E0FF0000F87F22
:104AE000F0B5F94D0C091E092C402E402F468BB015
:104AF000A7437DD0B543FCD0002E7AD0002CFCD04B
:104B00000D465D40ED0F2543AC1BFF25AD04641938
:104B10000894C502440DC9022143500DDC02044330
:104B20000120C00701430443D2020191200C110C63
:104B300000958C46010423468B430A916146090483
:104B4000E24D8A430991010A7D4449198039097867
:104B500005464D4301266D18F605751B6943C90CC2
:104B6000640B891C4C436418B5012C1B250C2E04C6
:104B7000B4434C434D43210C691889090591009DAC
:104B8000E90701D00121C90704912C460199670862
:104B9000CD072F434C08059DE10B4D432D0C2946B5
:104BA0006646754302950D4645432E46029D7D1B84
:104BB000B44100950D465D4301942C0C2F040D4625
:104BC0005543AE462D0C3D43029503947546049C17
:104BD0002D04641B049406D2029C039D641C0026D1
:104BE00075410395029401AC70CC009F7D1B01E0E0
:104BF0003EE162E1B44109040095079101940599F1
:104C0000A4086143090C0C464443650BE7040C46B9
:104C100066467443A646640B3C430395029474466F
:104C2000049DE4042C1B049406D2029C039D641C86
:104C3000002675410395029401AC70CC009F7D1B4A
:104C4000B44101940C465C430095650FE7000C46A7
:104C50005443A646640F3C43039502947446049D56
:104C6000E4002C1B049406D2029C039D641C0026C5
:104C700075410395029401AC70CC009F7D1BB4413B
:104C8000AE09AF06049DC900AD092F43049DA406DB
:104C9000AD060495079D344369180791059DE10B06
:104CA0004D432D0C29466646754302950D464543F6
:104CB0002E46029D7D1BB44100950D465D43019437
:104CC0002C0C2F040D465543AE462D0C3D4302954A
:104CD00003947546049C2D04641B049406D2029C24
:104CE000039D641C002675410395029401AC70CCB1
:104CF000009F7D1BB44101948C050694079C890A92
:104D0000611800950791019C0599A4086143090C5D
:104D10000D464543680BEF040D46644665436C0B36
:104D20003C43049FED047D1BAC4602D20025641C6D
:104D30006841009E019D371B8541084658430195F7
:104D40000C46460FC5005443600F28436546E400F7
:104D50002C1B02D20025401C6E41019D3F1AB5411B
:104D60002846BD09800628438446A009BF064E0296
:104D70000699A40676180743079D002068410A9902
:104D8000079019430020099B00906046FF191343C8
:104D90004041E20F64003A43A4460446D71A8C41CE
:104DA000A04203D90120009020463A46C70F94182C
:104DB00040416246D20F2243644664000494009C42
:104DC000BE466400D71AA446044602978C41774633
:104DD000002F01D1A04204D96046401C8446029AAB
:104DE0002046C40FA64694184041049A0546D20FA7
:104DF000224364466400D31A8D417146002901D1D3
:104E0000A84202D928461A46641C104301220028F1
:104E100000D0164361020020079B891904465C41BB
:104E20000223002C02DB491813466441089DCE0A78
:104E30002D145D194B056705E10A2C050D1908991C
:104E40003E43C9076940002B08D0934006D3002297
:104E5000761C5141002B01D1760876001C4A002DAA
:104E600043DB154241D0AA433FD030460BB0F0BDE2
:104E700006180D464D41174C7642AC411AD3951891
:104E80001C465C41134A6D42A24113D301225205D4
:104E90004C00D4420AD15C00D4420BD04B4002D526
:104EA00092021143E2E749004908DFE75940C90F80
:104EB000C90718E000200849D8E7054801420DD18C
:104EC0000342F7D0F2E700000000FF07C60E000023
:104ED0000000F07F0000E0FF0000F87F114859401B
:104EE0000143C01241400020C0E70123089A9B06FD
:104EF0009A4205DC032252078918C90FC907B5E792
:104F0000052252078918074A1143D2125140ADE7D2
:104F100070B515461C4602460B4628462146FFF74B
:104F2000DFFD70BDFFFFFF7F1F22030C02D10F22A8
:104F3000000402D0030E03D004E0002001467047B5
:104F40000002083A030F01D10001121F830F01D1A3
:104F50008000921E002801DB4000521E12055118ED
:104F60004205C012411810467047C10FC90700D052
:104F70004042012292071143D6E701218907D3E776
:104F8000F0B58B4C0F09254689B0BD437BD01D0978
:104F90002646AE43FAD00E465E402740F60F3E430B
:104FA000254071D024012142FBD0FF24AD19A40477
:104FB0002D1B039501252D05DB02DB0AC9022B43BE
:104FC000C90A29431E010901040F130F05012143DA
:104FD0001701880B820391432D098C46A90B1E43B0
:104FE0008A039543B30B9A0396433F09BA0B940384
:104FF000A74302962E467E430497B6464E19D7190C
:105000000C460196544305977E43371B7646BF1BDB
:105010003601B646BE0B361900967646BC043719E3
:10502000009C01D3641C00946400002F01D0012671
:105030003443029E049F754366467E430496760081
:1050400034196E0034190094029C019E1C196643A9
:10505000751BAE46069465464519059C05956C433F
:10506000594375460891691A0191049E01465143BE
:10507000A41B0491611A009C0791E10605D0610907
:105080000122114302E072E06EE06109089D0027F1
:105090002C0A2D066918049D7C412A0A2D066918E0
:1050A000019D6241AC0DAD026D185441079A910DFE
:1050B000920255196141029A644658435443069B33
:1050C000059A5A43121A131B9A0E9B015B187A41D8
:1050D000010B0005C3185141220A200644195A4108
:1050E0009A4200D2491C01204002814203D3152379
:1050F0000226F64302E014230326F6432020C51AB5
:10510000A9401746AF40DA400A4320460399D840E9
:105110000914731819055118039A3843D2075140DE
:10512000AC4009D00122944006D30022401C5141DA
:10513000002C01D1400840001E4A934212D30122A4
:1051400003989206904207DB0520400709181A4889
:105150000143C012414004E0032040070818C10F7A
:10516000C907002009B0F0BD0020F107FAE70518D3
:105170000C464C4111486D42A04115D394181A4673
:105180005A410E48644290410ED301204A00400526
:10519000824209D35A00824206D35940C90F084AB5
:1051A000C90700201143DDE700200649DAE70000C7
:1051B0000000FF07FE070000FFFFFF7F0000E0FF89
:1051C0000000F07F0000F87F0121C905012341188C
:1051D00042001B06D3185B0E0AD0C1100722D2066C
:1051E000891840075242D14201D5520089187047B0
:1051F000090208D50146002A03D0C10FC9070020C3
:10520000704710467047420202D0002002497047A2
:10521000072109050143F4E70000F87FF0B5FF25F9
:105220002D04C609C209FF2704462E400137CB09C9
:105230003E4348402A402B400746002A6BD0002BB3
:1052400069D0AA4267D0AB4265D0002800DA324666
:105250000125ED0529432C4309022002090AD21A2F
:105260004B0C7F24E31A434C000A7C44E35C7D240E
:105270002404121914145B00A218884201D3521C92
:1052800000E0400049420C465C4324115C43DB01D2
:105290006415E318040A5C43C502200D0C46444320
:1052A0006419250A5D432303EC0C0D466543000396
:1052B0000019EB184C42A34201D35B18401CD405E3
:1052C0002018002B07D05B00C91804D3401C00290C
:1052D00001D1400840003F2189048A4209D3002AB5
:1052E00008DC1106090F04D0032149074018C00F3C
:1052F000C007F0BD01224100120689187F22520624
:105300009142F6D205214907C84201D59010F0BD5F
:10531000FF20C005F0BD002F00DA32461648AA4231
:1053200007D2AB4205D21902090E17D0F80FC007F9
:10533000F0BDFF2563002D06AB42F9D84900A94214
:10534000F6D8AB4201D1A942F2D0A94201D1002145
:1053500001E061004908D0050843F0BD1102090EC3
:10536000FBD0FF200243D005F0BD0A46014610469F
:1053700054E70000240800000000C07F10B501467B
:105380009E240002CA15A307002A02D01843002A4F
:1053900004DBA21A002A0CDDD04010BD1206120E4A
:1053A00001D140004008A21A03D4D0404042002856
:1053B000F3DDFF2248001206904201D9002010BD03
:1053C000C817C043584010BD0102C21504D00123C4
:1053D000DB071943002A0ADB9E239A1A02D40846E7
:1053E000D0407047FF2241001206914201D90020AF
:1053F0007047C017C04370471F22030C02D10F2211
:1054000000041CD0030E01D10002083A030F01D1A1
:105410000001121F830F01D18000921E002801DBC2
:105420004000521ED2055118021251181922904004
:1054300004D3491C002801D1490849000846704797
:10544000C10FC90700D04042012292071143D3E7A0
:1054500001218907D0E70000F8B5224C4E00069DD7
:10546000A6420AD8A64201D1002806D15E00A64273
:1054700003D8A6420AD1002A08D00D2424042542CC
:105480002CD02946002000F061F8F8BD0C461C43E2
:105490000CD4994202D0EFF30080F8BD904202D0C4
:1054A000EFF30080F8BDEFF30080F8BD0924240776
:1054B000E5008B4206D0EFF30080A043591A06D2D4
:1054C000284304E0101A05D3EFF30080A04380F3D3
:1054D0000088F8BDEFF30080A043F1E7009500F0ED
:1054E0004DF8F8BD0000E0FF10B5FF231B06440097
:1054F0009C421DD84C009C421AD80346124A0B43CA
:1055000007D4401A02D3EFF3008010BDEFF3008000
:1055100010BD081A06D2EFF3008001219043C9079D
:10552000084302E0EFF30080904380F3008810BD51
:105530000D231B041A4204D01146002000F006F887
:1055400010BD00F025F810BD00000090C80212D573
:105550004803400F002804D0C803C04301218840FD
:105560007047EFF300800001000903210907084399
:1055700080F30088704700207047000010B50020BD
:105580000249029A00F033F810BD00000000F87FD5
:1055900010B5024800F02BF810BD00000000C07FDD
:1055A000754600F053F8AE46050069465346C008FC
:1055B000C000854618B020B5FAF7DCFD60BC0027B6
:1055C0004908B6460026C0C5C0C5C0C5C0C5C0C5CF
:1055D000C0C5C0C5C0C5403D49008D46704710B527
:1055E0000446C046C0462046FAF7B5FD10BD10B5CA
:1055F0000C461107090F092904D00A290AD00829E5
:105600000CD104E011460820FFF7A0FF06E0510688
:1056100006D501E0510601D50120C007214610BD85
:10562000D10607D501010909CC084907000E00067B
:10563000044309E0410F20024907000A0143200EFC
:1056400000061D22D14101430846E7E700487047A4
:105650009001002001491820ABBEFEE726000200A1
:10566000704730B47446641E2578641CAB4204D382
:10567000635D5B00E31830BC18471D46F8E7000087
:1056800070B501250C002D051C4310D4EC4206D446
:10569000AC420AD4994200D070BD904270BDE9423C
:1056A00017D4EB4215D4994270BD894270BDEC42CB
:1056B00006D5AC42F9D58B4200D070BD824270BD98
:1056C0006D004C00EC4204D25C00EC4201D28B42F3
:1056D00070BD034C30B4FFF7BFFE30BC70BD00BFDF
:1056E0001900160470B501251C002D050C4310D4BB
:1056F000EC4206D4AC420AD48B4200D070BD824248
:1057000070BDEB4217D4E94215D48B4270BD9B4269
:1057100070BDEC4206D5AC42F9D5994200D070BDBF
:10572000904270BD6D005C00EC4204D24C00EC4233
:1057300001D2994270BD0FB4034C0CBC03BC30B411
:10574000FFF78AFE30BC70BD1900160470B5012544
:105750000400ED074C4020D4441A01D2001B091963
:10576000C60D4B00F2B2FF2A29D01B0E2CD000022E
:105770000C02D31A2C43DC402843051910D2280A06
:1057800002D3401C6D0611D0761EF6058019FF2A43
:1057900000DA70BDC00DC00570BD694000F0B2F800
:1057A00001200543C541521C761CE8E764089C4073
:1057B000C90161408900E7D10124A043E4E71B0E41
:1057C000440200D0034870BD002AFCD1C00FC007BE
:1057D00070BD00BF0000C07F70B5420064414B0047
:1057E0005C41120E39D01B0E38D0FF2A3CD0FF2B63
:1057F0003AD040024902400A490A060045184E4381
:10580000000A090AD2184843ED017F3A0104731ACD
:105810004019190C4318990F04D001215B0849075E
:105820005B1A521CD80904D3401CF50301D19D0614
:1058300007D0FF2A08D2D50506D0E4072043401937
:1058400070BD0125A843F4E7002A01DCE00770BD24
:105850002402FF202043C00570BD1B0EFF2A03D089
:10586000FF2B01D0E00770BDFF2645003606B5428C
:1058700006D84D00B54203D8D218FF2A00D0E7E77A
:10588000004870BD0000C07F01230A00DB05024311
:105890000DD4DA4203D49A4207D481427047D942E8
:1058A00014D4D84212D48142704789427047DA42F8
:1058B00003D59A42F9D5884270475B004A00DA4224
:1058C00004D24200DA4201D2884270474840414047
:1058D00010B5024A4840FFF707FE10BD0900160444
:1058E00070B50125ED07684004004C4002D56940C1
:1058F00000F008F8FFF730FF70B501250400ED0750
:105900004C4022D4441A02D26C40001B0919C60D27
:105910004B00F2B2FF2A4BD01B0E50D000020C02FB
:10592000D31A2C43DC40A843051B05D5AD0019D381
:105930006D08761E521E37D0F605280A01D280194E
:1059400070BD70416D0603D070BD6940FFF704FF64
:105950009C4009026140490001D0401E70BD0124F5
:10596000A04370BD6D081DD001202B0C01D12D046A
:1059700010302B0E01D12D0208302B0F01D12D013B
:10598000001DAB0F01D1AD00801CEB0F01D16D00EC
:10599000401C6D00361A121A680AF5054019012AD2
:1059A00002DB70BD002070BDC036300AC00770BD7C
:1059B0001B0E440201D1FF2B00D1024870BD002A0A
:1059C000F0D070BD0000C07F329601003296010019
:1059D00032960100329601003232FAFA00010000DC
:1059E0003232640001001E0A0001010A0001010AAE
:1059F000640A640A640A6464000100010001000191
:105A00000001016400010A0A0A0A0A0A00010001F1
:105A1000000180807F7E7D7C7B7A797877767675D1
:105A20007473727171706F6E6E6D6C6C6B6A6A6993
:105A30006868676666656464636362616160605F2D
:105A40005F5E5E5D5D5C5C5B5B5A5A5959585857A6
:105A5000575656555555545453535252525151500E
:105A600050504F4F4F4E4E4D4D4D4C4C4C4B4B4B61
:105A70004A4A4A49494948484847474747464646A7
:105A800045454544444444434343434242424241E2
:105A900041418182838485868788898B8C8D8E8F16
:105AA000919293959697999A9C9D9FA0A2A3A5A742
:105AB000A8AAACAEB0B2B3B5B7B9BCBEC0C2C5C778
:105AC000C9CCCED1D4D7D9DCDFE2E6E9ECF0F3F7EC
:105AD000FAFE0000F45A000000000020AC000000B4
