:020000040000FA
:10000000080A00209D010000591700005B1700003E
:1000100000000000000000000000000000000000E0
:100020000000000000000000000000006B1700004E
:1000300000000000000000006F17000071170000B2
:10004000B32A0000C32A0000D32A0000E32A0000DC
:100050000000000000000000B53F0000AB01000000
:10006000AB01000000000000AB010000AB0100008C
:10007000AB010000AB01000035280000AB0100001F
:10008000032D000000000000AB01000097250000D8
:1000900000000000AB010000AB010000CD3B000000
:1000A000AB010000AB010000AB010000000000004C
:1000B0002D3B0000AB010000AB010000AB010000D4
:1000C00000F002F800F03EF80CA030C80838241800
:1000D0002D18A246671EAB4654465D46AC4201D180
:1000E00000F030F87E460F3E0FCCB6460126334274
:1000F00000D0FB1AA246AB46334318477861000094
:1001000098610000103A02D378C878C1FAD8520733
:1001100001D330C830C101D504680C6070470000BD
:100120000023002400250026103A01D378C1FBD813
:10013000520700D330C100D50B6070471FB51FBDFB
:1001400010B510BD05F0FCFD1146FFF7F7FF02F0FA
:10015000EFFE05F014FE03B4FFF7F2FF03BC05F059
:1001600049FE000070B505460C46164602E00FCC6D
:100170000FC5103E102EFAD2082E02D303CC03C5B1
:10018000083E042E07D301CC01C5361F03E02178B9
:100190002970641C6D1C761EF9D270BD064800479C
:1001A000FEE7FEE7FEE7FEE7FEE7FEE70348044959
:1001B000044A054B70470000C100000008020020FF
:1001C000080A0020080600200806002010B50122B9
:1001D0005103A04801F048FD0022012149039D4838
:1001E00001F042FD10BD10B500220268FF24240179
:1001F0001346A3431A464C680B6823438C68234379
:100200001A43026010BD00210160816041607047A7
:1002100010B5024600205068C00AC0024C680B6846
:1002200023438C6823431843506090688A4B1840DE
:100230000C69CB6823431843906010BD0021016016
:1002400041608160C16001617047002904D002688B
:1002500001231A43026003E0026852085200026060
:10026000704730B5046807252D02AC43046004686C
:100270000C430460846801252D04AC4384608468C9
:10028000144384608468FF252D02AC438460846835
:100290001C43846030BD0168022211430160704735
:1002A000014600200A6802231A40002A01D00120DA
:1002B00000E000207047002905D0426801239B021E
:1002C0001A43426004E0426801239B029A43426061
:1002D0007047002A03D083680B43836002E0836881
:1002E0008B4383607047002905D002680123DB033C
:1002F0001A43026004E002680123DB039A430260B0
:100300007047002905D0426801239B029A4342604E
:1003100004E0426801239B021A4342607047014691
:10032000C86A80B270470246002901D1D068704780
:10033000FF200130814201D11069F8E7012040021D
:10034000814201D15069F2E703200002814201D1CC
:100350009069ECE701208002814201D1D069E6E793
:1003600005200002814201D1106AE0E7032040022B
:10037000814201D1506ADAE707200002814201D1AF
:10038000506AD4E70020D2E702465163002070474C
:1003900002469163002070470346002A03D0586844
:1003A0000843586002E0586888435860002070474E
:1003B00010B50246002050681F2464010346A34381
:1003C00018464009400103460B431846506010BDD3
:1003D000002A03D0436C0B43436402E0436C8B431D
:1003E00043647047002905D042680123DB021A43A9
:1003F000426004E042680123DB029A434260704796
:10040000002905D042680123DB031A43426004E05F
:1004100042680123DB039A43426070470146086B40
:10042000704702460020D36C0B40002B01D0012006
:1004300000E00020704702460020136D0B40002BA7
:1004400001D0012000E000207047826C0A438264E2
:100450007047000000000240FF00FEFF70470022CE
:1004600003689AB2F94B984202D0F94B984203D1F3
:10047000F84B1A404B881A43F44B984202D0F44B85
:10048000984203D1F44B1A40CB881A4302608B8800
:10049000C3620B888362ED4B984202D0EC4B9842CA
:1004A00001D10B7A036301234361704770B50024C7
:1004B00000220023056AE74E6F3635400562056A63
:1004C000AAB24568ABB28569ACB2E24D2C40B51E0C
:1004D0002C400D882C43751E2A400D892A434D88D7
:1004E0002A43DA4DA84202D0D94DA84212D1D94DA3
:1004F00068352A404D892A43D64D6C352A408D886F
:100500002A43D44D903D2B40D44D2B408D892B4315
:10051000CD892B4343608461CD884563026270BD01
:1005200070B5002400220023056ACA4E60363540AB
:100530000562056AAAB24568ABB28569ACB2C84D1E
:100540002C40C54D2C400D782D062D0C2C43C14D53
:1005500050352A400D892D052D0C2A434D882D0537
:100560002D0C2A43B94DA84202D0B94DA84219D149
:10057000B84D103D2A404D892D052D0C2A43B54D0F
:1005800030352A408D882D052D0C2A43B54D2B4042
:10059000B54D2B408D89AD042D0C2B43CD89AD0479
:1005A0002D0C2B4343608461CD888563026270BD4E
:1005B00070B5002400220023056AA64E903E354007
:1005C0000562056AAAB24568ABB2C569ACB2A14D75
:1005D0002C40A04D6D352C400D882C439F4D2A405A
:1005E0000D7A2D062D0C2A438D782D062D0C2A43CD
:1005F000964DA84202D0964DA84217D19A4D2A4056
:100600008D7A2D062D0C2A43964D2A400D792D0604
:100610002D0C2A43954D2B40954D2B408D892D0552
:100620002D0C2B43CD892D052D0C2B434360C4612C
:10063000CD88C563026270BD70B50023002200241E
:10064000056A8A4E35400562056AAAB24568ACB2B1
:10065000C569ABB2824D2B407F4D2B400D782D06E6
:100660002D0C2B43824D2A400D7A2D072D0C2A4349
:100670008D782D072D0C2A43744DA84202D0744D5D
:10068000A84205D17B4D2C408D89AD052D0C2C4306
:100690004460C361CD880564026270BDC269764B57
:1006A0001A40C261C2690B061B0C1A43C261704733
:1006B000F8B50C460025002100260096066A6B4F0F
:1006C0003E400662C669B5B2066AB1B22607360C6C
:1006D00000966A4E35401606360C35431E07360C1A
:1006E00035435A4EB04202D0594EB04207D1604E07
:1006F000314001273F03009E3E43314305E0604EF9
:1007000031400126360326433143C5610162F8BDFD
:10071000C269504B64331A40C261C2690A43C26164
:100720007047F8B50C460025002100260096066AA1
:10073000484F903F3E400662C669B5B2066AB1B204
:100740002606360C0096434E833E35401E05360C79
:10075000164335433D4EB04202D03D4EB04207D124
:100760003E4E3140FF270137009E3E43314305E0B6
:10077000444E3140FF26013626433143C5610162B4
:10078000F8BD82693C4B1A40826182690B061B0CE2
:100790001A4382617047F8B50C46002500210026F7
:1007A0000096066A2B4F60373E4006628669B5B2F6
:1007B000066AB1B22605360C0096304E35401E074B
:1007C000360C35431606360C3543204EB04202D067
:1007D0001F4EB04207D11F4E503631401027009EA9
:1007E0003E43314305E01B4E303E31401026264348
:1007F000314385610162F8BD8269164B64331A404A
:10080000826182690A4382617047F0B50C46002517
:100810000021066A0F4F6F373E4006628669B5B207
:10082000066AB1B20B4E833E35401E05360C1643A8
:100830003543064EB04202D0054EB04224D1054E9B
:100840006E36314001262643314322E0001000403D
:10085000003C00408FFF0000FFFC0000FFFD000097
:10086000FF8F0000FFFB0000FFF70000FFEF00001C
:10087000FFDF0000FFBF0000FFF30000FF0C0000DF
:10088000FF7D0000FFF50000F84E314001262643B1
:10089000314385610162F0BD70B505460C46F448F0
:1008A000854202D0F348854200D100E000BF208895
:1008B00000280AD12389A28861882846FFF7A5FF6E
:1008C000E1882846FFF798FF25E0208804280AD110
:1008D0002389A28861882846FFF75DFFE1882846C2
:1008E000FFF74FFF17E0208808280AD12389A28844
:1008F00061882846FFF715FFE1882846FFF708FFC3
:1009000009E02389A28861882846FFF7D1FEE188A3
:100910002846FFF7C3FE70BDF8B505460C46002615
:1009200001276088002801D1022600E00026A08867
:10093000012801D1022700E001272088002814D1D6
:100940002389A28861882846FFF75FFFE18828464F
:10095000FFF752FF23893A4631462846FFF71BFF2F
:10096000E1882846FFF70DFF13E02389A2886188FC
:100970002846FFF710FFE1882846FFF702FF23898A
:100980003A4631462846FFF740FFE1882846FFF700
:1009900033FFF8BD0A884B881A438B881A43CB88EB
:1009A0001A430B891A434B891A438B891A434264B1
:1009B00070470021C943818000210180C1804180AE
:1009C000017270470021018041808180C1800181D6
:1009D00041818181C18170470021018041800121D5
:1009E00081800021C1800181704700210180418008
:1009F0008180C1800181418181817047002904D0BB
:100A0000026801231A43026004E00268974B09332D
:100A10001A4002607047002905D0426C0123DB03B5
:100A20001A43426403E0426C5204520C4264704721
:100A300010B5002A03D0C3680B43C36004E0C36849
:100A4000CC43A4B22340C36010BD416170470B4644
:100A500013438364704710B5002A03D0C3680B4367
:100A6000C36004E0C368CC43A4B22340C36010BD9C
:100A700081687E4AD21C1140816070470A4600217D
:100A8000836899B2794B663B19400B46134319466C
:100A90008160704730B504460D4629462046FFF771
:100AA000EDFFA06807210843A06030BDF8B50446FB
:100AB0000D4616461F46602D06D13B4601223146A3
:100AC0002046FFF768FE05E03B46012231462046FE
:100AD000FFF79BFE29462046FFF7D0FFA0680721BD
:100AE0000843A060F8BD30B50C4600218568A9B266
:100AF000C9B21D062D0C154325432943816030BD25
:100B0000FFB505460E46174600243A4631462846AC
:100B1000039BFFF7E8FFA86884B25448C01C044058
:100B20000720044351486638044070200443AC60F9
:100B3000FFBDF0B504460D4616461F463B463246FD
:100B400029462046FFF7CFFFA0680121890308430B
:100B5000A060F0BD8162426170470A4600210368CF
:100B600099B2424B663B19400B461343194601604C
:100B70007047F0B50C460021002500268768B9B201
:100B80008769BDB2076ABEB2384FFF1C39400F46B5
:100B900027433946384F3D40FF2702373D43334F07
:100BA000183F3E401F053F0C17433E43816085615F
:100BB0000662F0BD0A460021836999B22B4B663B61
:100BC00019400B4613431946816170470A460021BC
:100BD000836999B2294B194013061B0C1943816193
:100BE00070470A460021C36999B2204B663B194001
:100BF0000B4613431946C16170470A460021C36979
:100C000099B21E4B194013061B0C1943C161704762
:100C1000002904D0026880231A43026004E00268BD
:100C2000124B763B1A4002607047002904D042689C
:100C300004231A43426004E042680C4B9B1D1A4097
:100C400042607047002904D0426808231A4342607A
:100C500004E04268054B9B1C1A4042607047002923
:100C60000ED0426801231A4342600DE0F5FF0000F8
:100C700000100040003C0040FCFC0000FF8F000022
:100C80004268E44B1A40426070470A46002183697B
:100C900099B2E04BDB1F19400B46134319468161A3
:100CA00070470A460021836999B2DB4B194013064D
:100CB0001B0C1943816170470A460021C36999B230
:100CC000D44BDB1F19400B4613431946C1617047D3
:100CD0000A460021C36999B2CF4B194013061B0C79
:100CE0001943C16170470A460021836999B2C94B13
:100CF000DB1E19400B4613431946816170470A46B3
:100D00000021836999B2C54B194013061B0C194386
:100D1000816170470A460021C36999B2BD4BDB1E51
:100D200019400B4613431946C16170470A4600211A
:100D3000C36999B2B94B194013061B0C1943C16121
:100D400070470A460021836999B2B24B7F3B194034
:100D50000B4613431946816170470A460021836997
:100D600099B24904490C13061B0C19438161704761
:100D70000A460021C36999B2A64B7F3B19400B4636
:100D800013431946C16170470A460021C36999B2ED
:100D90004904490C13061B0C1943C16170470A46EC
:100DA0000021036A99B29B4B5B1E19400B4613430B
:100DB0001946016270470A460021036A99B2954BB1
:100DC000DB1F19400B4613431946016270470A4660
:100DD0000021036A99B28F4B1F3B194013051B0C6E
:100DE0001943016270470A460021036A99B2894B90
:100DF0007F3B194013051B0C1943016270470A46DB
:100E00000021036A99B2864B194013061B0C194343
:100E1000016270470A460021036A99B27E4B19406D
:100E200013061B0C1943016270470A460021036A2E
:100E300099B27C4B194013071B0C19430162704790
:100E400030B5002301248C40A3B2046ADD43ADB267
:100E50002C400462046A15468D40ADB22C430462F6
:100E600030BD30B5002304248C40A3B2046ADD43B6
:100E7000ADB22C400462046A15468D40ADB22C43DD
:100E8000046230BD70B503460020002418461830B7
:100E900001258D40ACB21D6AE643B6B235401D62F5
:100EA000002901D0082909D14D102818056870269D
:100EB000B54305600568154305600DE00D1F2D0461
:100EC0006D0C2818056807263603B54305600568CC
:100ED0001606360C3543056070BD002904D0026843
:100EE00002231A43026004E002684A4B5B1E1A4068
:100EF00002607047002904D0026804231A4302608C
:100F000004E00268434BDB1E1A4002607047002970
:100F100004D0426880231A43426004E042683D4B9B
:100F20007F3B1A404260704702683A4BDB1F1A4011
:100F3000026002680A43026070474268354B6F3BAB
:100F40001A40426042680A43426070478268314BEF
:100F50009B1F1A40826082680A43826070478268E1
:100F60002C4B7F3B1A40826082680A438260704744
:100F700041627047C1627047416370478163704747
:100F8000C1637047016470470268274B1A400260D2
:100F900002680A43026070470146486B80B270479E
:100FA0000146886B80B270470146C86B80B27047BB
:100FB0000146086C80B270470146486A80B27047AB
:100FC0000146886A80B270470246002013690B40D0
:100FD000002B01D0012000E000207047CA4392B2EC
:100FE0000261704730B502460020002300241569D5
:100FF0000D402B46D5680D402C46002B03D0002C0D
:1010000001D0012000E0002030BDCA4392B202614D
:1010100070470000FEFF0000FFF70000FFFB00002C
:10102000FFFD0000FFDF0000FFFC000010B5002204
:10103000026810231A400B681B024C6864012343AA
:101040008C6823431A43026010BD002904D0026853
:1010500010231A43026003E0026810239A430260DF
:101060007047026860239A43026002680A43026084
:101070007047416070470121C16070478B78002B39
:1010800003D0036A1343036202E0036A93430362DB
:10109000CB78002B03D0436A1343436202E0436AD8
:1010A000934343620B79002B03D0836A134383621B
:1010B00002E0836A934383624B78002B03D0C369B9
:1010C0001343C36102E0C3699343C3610B78002BF0
:1010D00003D003691343036102E00369934303618F
:1010E000704700000220F2490968042211400429D7
:1010F00001D1012000E00220704708B502200090D5
:10110000FFF7F0FF009002E0FFF7ECFF0090684669
:1011100000780128F8D06846007808BD70B504460C
:1011200000250226650AFFF7E8FF0646402D0FD985
:10113000E048DF49C860E048C86008464069294681
:1011400040394A08012191400843D94948610CE0DF
:10115000D848D749C860D848C860084600696A08B6
:10116000012191400843D2490861022E0FD1D14894
:10117000CF49C860D048C8600846006802210843CB
:10118000CB49086000202060FFF7B7FF06463046D5
:1011900070BD10B50224FFF7B0FF0446C548C4492E
:1011A000C860C548C8600020C0430861C148C86025
:1011B000C148C8600020C0434861022C12D1BD481C
:1011C000C860BD48C86003200860FFF796FF04466A
:1011D000B848B749C860B848C86008460068000AFF
:1011E00000020860204610BDF0B505460E460024FA
:1011F0000227FFF782FF0746402C0FD9AD48AC49C4
:10120000C860AD48C86008464069214640394A0870
:10121000012191400843A64948610CE0A548A44932
:10122000C860A548C860084600696208012191406D
:1012300008439F490861022F21D19E489C49C860FC
:101240009D48C86008460068000A00020860994886
:10125000C8609948C860084600680121084394495D
:1012600008602E60FFF749FF074692489049C86022
:101270009148C86008460068000A000208603846C5
:10128000F0BDF0B505460E4600240227FFF735FFF6
:101290000746402C0FD987488549C8608648C860F2
:1012A00008464069214640394A08012191400843D7
:1012B0007F4948610CE07F487D49C8607E48C8602E
:1012C0000846006962080121914008437849086195
:1012D000022F21D177487649C8607748C860084610
:1012E0000068000A000208607248C8607248C8605E
:1012F00008460068012108436D4908602E80FFF709
:10130000FCFE07466B486A49C8606B48C8600846DF
:101310000068000A000208603846F0BDF0B50546D6
:101320000E4600240227FFF7E8FE0746402C0FD99F
:1013300060485F49C8606048C86008464069214607
:1013400040394A08012191400843594948610CE05D
:1013500058485749C8605848C8600846006962083C
:1013600001219140084352490861022F21D151487F
:101370004F49C8605048C86008460068000A00022B
:1013800008604C48C8604C48C860084600680121A5
:101390000843474908602E70FFF7AFFE07464548EF
:1013A0004349C8604448C86008460068000A000213
:1013B00008603846F0BDF0B506460C4615460227D3
:1013C000FFF79BFE0746402E17D3022F2CD1002D8E
:1013D00009D038483649C8603748C860084640696F
:1013E0002043486120E033483149C8603248C86032
:1013F00008464069A043486116E0022F14D1002D31
:1014000009D02C482A49C8602B48C86008460069A2
:101410002043086108E027482549C8602648C8607D
:1014200008460069A0430861F0BD2249204AD16006
:101430002149D160002802D02049916102E01F4972
:101440001B4A916170471B49194AD1601A49D16002
:10145000002802D01949916102E01849144A9161AB
:101460007047144A124BDA60134ADA60002904D03C
:101470001A46126802431A6004E00D4A1268824359
:101480000B4B1A60704701460020094A52680A4017
:10149000002A01D0012000E0002070470549044ADD
:1014A000D1600549D16011468968814391607047D8
:1014B000000402405A5A0000A5A500000100695A24
:1014C00010B504469F4884420BD1012211069E4864
:1014D00000F0CAFB0022012109069B4800F0C4FB72
:1014E0002BE09A4884420BD101225106964800F025
:1014F000BBFB002201214906934800F0B5FB1CE02C
:10150000934884420BD1012291068F4800F0ACFB36
:101510000022012189068C4800F0A6FB0DE08D48D1
:1015200084420AD10122D106874800F09DFB0022A7
:101530000121C906844800F097FB10BD00208149B5
:1015400040318860814940318860814940318860FC
:101550008049403188607047F0B50A460021002379
:10156000002400BF47E001258D402B4615681D4033
:101570002C469C423ED1856C8F000F26BE40B54361
:1015800085641579012D02D01579022D14D10568D5
:1015900001268E40B5430560056801268E4035431F
:1015A0000560456801268E40B543456045689679DB
:1015B0008E403543456007E01579002D04D105685C
:1015C00001268E40B5430560C56B4F000326BE4023
:1015D000B543C563D5794E00B540C66B3543C56389
:1015E000056C01268E40B5430564056C56798E4026
:1015F00035430564491C0829B5D3F0BDFF210160BE
:10160000002101710121417100218171C171704777
:1016100002460020D3680B40002B01D0012000E0DF
:10162000002070470146C868C0B27047002905D045
:10163000426BFF2301331A43426304E0426BFF23F2
:1016400001339A4342637047002A03D0436B0B4334
:10165000436302E0436B8B4343637047002904D02C
:10166000826B10231A43826303E0826B10239A4338
:1016700082637047826B120912018263826B0A4394
:10168000826370470246002093680B40002B01D014
:10169000012000E00020704701468868C0B2704712
:1016A000C162704701637047002A01D0C16200E047
:1016B000016370478160704782684A40826070476A
:1016C00030B5C36B4D000324AC40A343C363C36B6D
:1016D0004D001446AC402343C36330BD10B5002A0F
:1016E00005D1436C01248C402343436404E0436CE4
:1016F00001248C40A343436410BD70B50023002433
:10170000856C0F269640B5432B4696000D46B54096
:101710001D432C46846470BDF0B5002400250023D1
:101720004E07F60E1746B7403C46836C4E07F70E41
:101730000F26BE401F46B7433B461E46264335464E
:101740008564F0BD00100240000002400014024019
:1017500000180240001C0240704700BFFEE700BFB7
:10176000FEE700BFFEE700BFFEE770477047704727
:1017700070470000214988617047204988607047A0
:10178000012806D11D494968012211431B4A5160B5
:1017900005E01A49496849084900184A51607047EC
:1017A0001648C0687047AA20144908607047552041
:1017B000124908607047AA20104908607047014626
:1017C00000200E4A12690A40002A01D0012000E0E0
:1017D00000207047002806D00849496802221143BA
:1017E000064A516005E00549496802229143034ACF
:1017F0005160704701200149486170470024004052
:1018000043480068704710B50246506802240346FA
:10181000A34318460B68184304240346A343184601
:101820004B68184330240346A34318468B6818437B
:1018300040240346A3431846CB681843802403463C
:10184000A34318460B691843A4000346A343184654
:101850004B691843506010BD002904D04268012331
:101860001A43426003E042685208520042607047E7
:10187000002904D0426808231A43426003E042680A
:1018800008239A4342607047002905D04268FF232D
:1018900001331A43426004E04268FF2301339A4354
:1018A00042607047014600204A6801231B041A4029
:1018B000002A01D0012000E00020704718B5002365
:1018C0000093002200BF43680124240423401A46E9
:1018D00023469A42F7D0416118BD18B50023009302
:1018E000002200BF43680124240423401A462346F3
:1018F0009A42F7D0816018BD02460020D3680B40A1
:10190000002B01D0012000E00020704701617047EA
:1019100000440040F848806840094001F64988606A
:1019200008468068400D400588607047F34AF44BD4
:10193000036613460B438362F14B5B1E03667047DD
:10194000EE4AEF4B036613460B430363EC4B5B1EFF
:101950000366704710B500230C4614432346E84C39
:101960000466E64C1C43C462E54C641E046610BD6C
:1019700010B500230C4614432346E14C0466DF4CAB
:101980001C434463DE4C641E046610BD18B501465A
:10199000002300930022002000BF8B6A012424034F
:1019A00023401A46009B5B1C009305242403009BE4
:1019B000A34203D001231B039A42EED001231B0351
:1019C0009A4201D1012000E0002018BD38B502463E
:1019D0000024009400230020C94C1466C74C0C431B
:1019E000D46200BFD46A40252C402346009C641C6E
:1019F000009405252D03009CAC4201D0402BF1D072
:101A0000402B01D1012000E00020BD4C641E146673
:101A100038BD38B502460024009400230020B84C9D
:101A20001466B64C0C43146300BF146B01252D03E0
:101A30002C402346009C641C009405252D03009C2B
:101A4000AC4203D001242403A342EED0012424039A
:101A5000A34201D1012000E00020A94C641E1466BD
:101A600038BD38B502460B46002400940021002002
:101A7000A34C146600BF546B40252C402146009CAB
:101A8000641C009405252D03009CAC4201D0402924
:101A9000F1D0402901D1012000E00020984C641EC3
:101AA000146638BD30B5002200234C68A4020D68CE
:101AB000ED022C438D686D022C434D692C43CD689B
:101AC0002D022C430D692D012C4323468B4C1C43C6
:101AD00022468B4C04664263641E046630BD884A0D
:101AE0000266002902D0874A426301E0834A4263CA
:101AF000834A521E02667047814A02668163521E03
:101B00000266704710B5C36B5B0E5B06C363C36BA5
:101B10000C062343C363C36B1343C36310BDC26B83
:101B200001235B069A43C263002903D0C26B1A43A8
:101B3000C26304E0C26B01235B069A43C263704731
:101B400070B5034600200024186A5C6B80B26B4DB0
:101B50002843A4B22C43012907D1002A02D0012531
:101B6000284327E04008400024E0022909D1002A48
:101B700002D0022528431DE002260546B54328462B
:101B800018E0042909D1002A02D00425284311E0D5
:101B900004260546B54328460CE0FF250135A94239
:101BA00008D1002A01D02C4304E0FF260136254647
:101BB000B5432C46524D1D6618625C636D1E1D6652
:101BC00070BD0A4600210B46134319464B4B19437F
:101BD0004B4B036641625B1E0366704710B50A46B5
:101BE00000210169072424020B46A34319460B4632
:101BF00013431946016110BD10B50A460021016961
:101C0000002A03D001231B03194304E00124240309
:101C10000B46A3431946016110BD0A460021016924
:101C2000090A09020B461343194601617047014630
:101C3000086A4007400F7047016070474160704775
:101C4000002A03D083680B43836002E083688B43E0
:101C500083607047002A03D0C3680B43C36002E06F
:101C6000C3688B43C3607047254B0366002A03D0CB
:101C7000436C0B43436402E0436C8B434364204B4F
:101C80005B1E036670471E4A0266002903D01B4A8A
:101C9000521C826401E0194A8264194A521E02668B
:101CA000704710B5164C641E0C432346144C046652
:101CB000002A03D084691C43846102E084699C4348
:101CC00084610F4C641E046610BD10B502460023EB
:101CD0000020D3691C460C40002C01D0012000E0FC
:101CE000002010BD054A13460B431A46044B0366F9
:101CF00002645B1E03667047000002400000695AE0
:101D00009966AA550008695A10B5012280216348D6
:101D1000FFF7AAFF002280216048FFF7A5FF10BD52
:101D20005F4A0265002904D0026801231A43026059
:101D300003E00268520852000260594A521E0265CE
:101D40007047002904D042680022D243426002E07A
:101D50000268002202607047002904D042685208DD
:101D60005200426003E0026801231A430260704798
:101D7000826812091201826082680A438260704799
:101D8000826830239A43826082680A438260704787
:101D90008268C0239A43826082680A4382607047E7
:101DA000826803231B029A43826082680A4382602E
:101DB000704730B5C3684D000324AC40A343C360F3
:101DC000C3684D001446AC402343C36030BD30B5FA
:101DD00003698D000724AC40A343036103698D00B0
:101DE0001446AC402343036130BD02690F231B043A
:101DF0009A43026102690A43026170470169012244
:101E00001205914301610169114301617047016944
:101E10000122120591430161704730B543698D007D
:101E20000724AC40A343436143698D001446AC4092
:101E30002343436130BD42690F231B049A4342612F
:101E400042690A434261704710B50022144B036592
:101E500083699BB2134C1A1993089B000B431A46D3
:101E600082610F4B5B1E036510BD10B50A46002151
:101E70000B4B036583699BB20A4C1919002A03D0E6
:101E800010231943816104E010240B46A343194633
:101E90008161034B5B1E036510BD00000000024022
:101EA0009966AA550000695A10B504465048844204
:101EB00002D05048844209D1012240214E48FFF708
:101EC000D3FE002240214C48FFF7CEFE10BD10B5D6
:101ED000002202680523DB011A404C680B6823438B
:101EE0000C692343CC6823438C6823434C69234308
:101EF0008C6923431A43026010BD00218161FF21D8
:101F000001318160002141600121C902016040214D
:101F1000C16008214161102101617047002904D08E
:101F2000026880231A43026003E0026880239A4318
:101F300002607047002905D0026801235B021A4342
:101F4000026004E0026801235B029A43026070476A
:101F5000002904D0026820231A43026003E00268CB
:101F600020239A43026070470268FF2301339A439B
:101F7000026002680A430260704702680123DB02C4
:101F80009A4302600268CB431A43026070470268BA
:101F9000D208D200026002680A430260704701461C
:101FA00008684007400F70474160816170470146F3
:101FB00048687047816070470146886870470246EC
:101FC0000020D3680B40002B01D0012000E000204E
:101FD00070470246002013690B40002B01D00120FE
:101FE00000E000207047CA07D20F4261704700002E
:101FF000001800400019004000000240002815DBD6
:10200000C206D20E01219140BA4A116000BF00BF42
:1020100000BFBFF34F8F00BF00BF00BF00BF00BFB6
:1020200000BFBFF36F8F00BF00BF00BF704710B588
:1020300004460120800784420AD101221146AE489D
:10204000FFF712FE00220121AB48FFF70DFE0CE066
:10205000AA48844209D101220221A748FFF704FEC1
:1020600000220221A448FFF7FFFD10BDF0B58BB0A0
:1020700004460E46154600272068C021884320608C
:1020800020680121490288432060A879002802D0F5
:10209000A87902280AD12068A9798901084320601B
:1020A0002068297949020843206081E0A879012845
:1020B00002D0A87903287BD12068A9798901084337
:1020C0002060206829794902084320606879002847
:1020D0003ED00E20FFF792FF0F20FFF78FFFA06981
:1020E000012109048843A0612968480103F015FB18
:1020F000059104902979481C03F007FB0022804BCE
:102100000191009003F00CFB03910290059B049A4F
:1021100003F0B6F800227B4B0791069003F080F89D
:102120000991089002F0C2FE0746384603F0F6FC1B
:1021300000B201210904081A7060384603F0EEFC71
:1021400000B201210904081AB061E02030602FE0DC
:102150000020A061A069012109040843A061296849
:10216000480103F0DAFA059104902979481C03F03C
:10217000CCFA0022624B0191009003F0D1FA039156
:102180000290059B049A03F07BF800225D4B0791B7
:10219000069003F045F80991089002F087FE074683
:1021A000384603F0BBFC00B2401EA1690843A061A1
:1021B0000BB0F0BD4B21C90101600021817101719B
:1021C0004171704710B503681024A34303600129CF
:1021D0000AD1002A03D003682343036008E00368A0
:1021E000494C2340036003E00368474C23400360ED
:1021F00010BD002A03D003680B43036002E00368AC
:102200008B430360704710B58368FF24240223408A
:10221000836083680B438360C3682340C360C368E3
:102220001343C36010BD10B5002A19D08B79002B61
:1022300002D08B79012B08D103681024234303605B
:1022400003695B085B0003610EE08B79022B02D00F
:102250008B79032B08D103695B085B00036103E002
:10226000036810242340036010BD4160704701469D
:102270004868C0B27047002904D0026808231A4396
:10228000026003E0026808239A4302607047002955
:1022900004D0026804231A43026003E002680423A6
:1022A0009A430260704710B500220B888C88234344
:1022B0000C8923438C8923439AB2C26110BD002943
:1022C00005D0C269FF2301331A43C26104E0C26929
:1022D0000D4BF03B1A40C261704702460020136963
:1022E0000B40002B01D0012000E00020704741612D
:1022F0007047000080E100E0000002400004004060
:1023000060E376410000E03FEFFF00002E4901430B
:102310002E4AD160704770B5002100230F22C47887
:10232000002C25D0294CE46807252D022C402C1BBD
:10233000210A0424631A1446CC40224644789C4067
:1023400021468478144021430901214C03252D02A4
:1023500064190578AD0061510478E506ED0E01249D
:10236000AC4005786D11AD00194EAD192C600AE036
:102370000478E506ED0E0124AC40154D8035067855
:102380007611B600AC5170BD7047002905D00F4AD8
:10239000126902430D4B1A6104E00C4A1269824330
:1023A0000A4B1A617047042806D10A4909690422B8
:1023B0001143084A116105E0064909690422914365
:1023C000044A1161704700000000FA0500ED00E0CA
:1023D00000E100E000E000E07047704730B587B0F2
:1023E00004460D460321684601820021418221886E
:1023F00081820021C182017604A92846FEF72FF8C8
:102400006021684601800121418004218180C84902
:10241000C180002101814181FF2101318181C18180
:1024200069462846FEF742F800216846C1806946A1
:102430002846FEF775F8002168464181FF210131E9
:10244000C181BB49C18069462846FEF7B1F8002129
:102450006846C18069462846FEF7EEF80121284605
:10246000FEF7CCFA01212846FEF7D5FA07B030BDB9
:10247000F8B50B460021002400250095AD4DAE4E69
:10248000356200BF17E001258D402C461D462540D2
:102490000095009DA5420DD1856C8F000F26BE4092
:1024A000B5438564012A05D1856C8F000126BE40A5
:1024B00035438564491C0829E5D39E4D6D1E9E4E0B
:1024C0003562F8BDFEB504460E4615467F21C905A6
:1024D000304603F0A9FD01D27F26F605012C0DD16F
:1024E00096490988481C03F07BFB3146019003F0B4
:1024F00043FD074603F038FB686342E0022C0DD130
:102500008E490988481C03F06BFB3146019003F0AB
:1025100033FD074603F028FBA86332E0042C0DD1FD
:1025200086490988481C03F05BFB3146019003F0A3
:1025300023FD074603F018FBE86322E0082C0DD1C9
:102540007E490988481C03F04BFB3146019003F09B
:1025500013FD074603F008FB286412E0402C10D15D
:1025600076490988481C03F03BFB3146009003F094
:1025700003FD7349019003F083FD074603F0F4FA6D
:10258000E863FEBD704770477047704770477047FB
:1025900070477047704710B501216A48FEF722FD69
:1025A000002813D06748406A6749086001216548E0
:1025B000FEF72BFD00216348FEF720FA00220121DF
:1025C0006048FEF735FA01206049087002215D4835
:1025D000FEF708FD00281AD002215A48FEF715FD23
:1025E00001205B4908705748FEF7D6FC594908603E
:1025F00008460068584A1268811A584802F0A6FB3B
:1026000057490860534800685349086061E0042155
:102610004C48FEF7E7FC00281AD004214948FEF791
:10262000F4FC01204F4908704648FEF7B9FC4949BF
:102630000860084600684C4A1268811A474802F050
:1026400085FB4A490860434800684749086040E004
:1026500008213C48FEF7C6FC00281AD0082139485A
:10266000FEF7D3FC0120424908703648FEF79CFC77
:1026700038490860084600683E4A1268811A37489F
:1026800002F064FB3C490860324800683949086040
:102690001FE010212B48FEF7A5FC002819D01021BF
:1026A0002848FEF7B2FC0120344908702548FEF79F
:1026B0007FFC2849086008460068314A1268811A80
:1026C000264802F043FB2F490860224800682C4945
:1026D000086020211B48FEF785FC002806D0012059
:1026E0002949087020211748FEF78FFC4021154822
:1026F000FEF778FC002806D001202449087040210C
:102700001048FEF782FC80210E48FEF76BFC002883
:1027100006D001201E49087080210A48FEF775FC8A
:1027200008480069000C00040649086110BD00005B
:10273000B80B00009966AA5540000240C80000206E
:1027400000803B45001000400800002007000020EA
:10275000000000200C0000202000002000366E0148
:1027600010000020010000202400002014000020A0
:102770000200002028000020180000200300002094
:102780002C0000201C000020040000200500002078
:102790000600002038B5044607200002FFF7B6FD0A
:1027A000684604700321417081700121C170FFF7F8
:1027B000B2FD684600F05AF838BD10B588B004463E
:1027C00000200790069010200590402004900020E3
:1027D0000390029001902148844208D101A920462B
:1027E000FFF775FB1E492046FFF7DEFB11E00520D1
:1027F00007900020059001A92046FFF768FB002103
:102800002046FFF7D1FB01212046FFF787FB08B0E8
:1028100010BD13492046FFF7C7FB0E20FFF7BAFF94
:1028200001212046FFF794FB01212046FFF776FBAC
:1028300000BFECE710B501210848FFF7D4FB0948B9
:102840000088401C074908800846008806498842DD
:1028500002DB00200349088010BD00000018004082
:1028600040A2FFFF3400002010270000F8B500242C
:10287000002100230025002200920278D617B60F0F
:10288000B618B610B600941B0278D617B60FB61855
:10289000B110E200931D4278002A00D103E0427893
:1028A000521E9A40154603229A40D2430092914A02
:1028B0000326360292198E009259009E32408D4EA8
:1028C00003273F02F6198F00F2518A4A0326360287
:1028D00092198E0092592A43864E03273F02F61919
:1028E0008F00F251F8BD08B503204002FFF70EFD3E
:1028F00000216846017001214170C170FFF70BFD96
:102900006846FFF7B3FF08BD08B503204002FFF794
:10291000FDFC0121684601704170C170FFF7FBFCAE
:1029200008BD08B503204002FFF7F0FC022168460D
:10293000017001214170C170FFF7EDFC08BD08B5C1
:1029400005200002FFF7E2FC032168460170012127
:102950004170C170FFF7DFFC08BD1CB5002168465F
:1029600001708170C17001710121417002226946BC
:102970006148FEF783FB1CBD1CB5FFF7B4FFFFF7F2
:10298000C3FFFFF7CEFFFFF7DAFF012168460170B2
:1029900000218170C17001710121417008226946D6
:1029A0005648FEF76BFB042269465448FEF766FB67
:1029B000012168460171102269465148FEF75EFB0D
:1029C0001CBD10B5044600F0C1FB60690821084039
:1029D00000280CD0A0690840002808D0E06908430E
:1029E000E0614648844263D101F0A5FD60E0606982
:1029F00020210840002807D0A0690840002803D003
:102A0000E0690843E06153E06069C007C00F002837
:102A100009D0A069C007C00F002804D0E0690121D7
:102A20000843E06144E0606902210840002807D0C3
:102A3000A0690840002803D0E0690843E06137E05E
:102A4000606904210840002807D0A06908400028D8
:102A500003D0E0690843E0612AE060691021084082
:102A600000280CD0A0690840002808D0E06908437D
:102A7000E061234884421BD101F001FF18E0606946
:102A800040210840002807D0A0690840002803D052
:102A9000E0690843E0610BE060698021084000289C
:102AA00006D0A0690840002802D0E0690843E06130
:102AB00010BD10B50120134908700F48FFF781FFC2
:102AC00010BD10B501200F4908700D48FFF779FFC0
:102AD00010BD10B501200B4908700B48FFF771FFBE
:102AE00010BD10B50120074908700448FFF769FFC1
:102AF00010BD000000E100E000100240001C024098
:102B00000014024036000020001802400146086808
:102B1000704701460888704701460878704710B52D
:102B200002240320FEF7BAFC3F204002FEF7F6FA2B
:102B30000446204610BDF8B5022600250024294F82
:102B4000FFF7EDFF3F256D0200BF07E0395D284626
:102B5000FEF7E4FB06466D1C601CC4B2042CF5DBDA
:102B60003046F8BDF0B502200021002200231D4CA4
:102B70003F21490200BF042305E00E781546571C8B
:102B8000FAB26655491C9A42F7DBF0BD10B5022433
:102B9000FFF7C5FF0446022C01D0204610BDFFF709
:102BA000E1FF0446022C01D02046F7E704210D483E
:102BB00001F022F85A200C490968C870FFF7BBFFE2
:102BC00004462046EAE710B5FFF7CCFF0648006848
:102BD000C0785A2803D0FFF7D9FFFFF7C3FF0120C1
:102BE00010BD0000380000203C00002010B5FFF7A9
:102BF000C3FE00217348FEF72FFE734800690421CD
:102C000008437149086130BF10BD10B500216D48FF
:102C1000FEF722FE6C480069042188436A49086176
:102C200030BF10BD08B505200002FFF76FFB102173
:102C3000684601700421417001218170C170FFF765
:102C40006AFB6846FFF712FE08BD10B50446002C6B
:102C500009D1012204215D48FEF75EFD00215C4898
:102C6000FFF79EF822E0012C09D1052203215948E3
:102C7000FEF752FD21025648FFF792F816E0022CAB
:102C800009D1052206215348FEF746FD210250488E
:102C9000FFF786F80AE0032C08D1052206214E48EA
:102CA000FEF73AFD21024A48FFF77AF810BD00B559
:102CB00087B0182101A800F09FFF0220019000209A
:102CC00002903020039000200490059001204002E3
:102CD000069001A93B48FEF796FDFFF7A3FF3F4989
:102CE0003848FEF7FAFD3D493648FEF7E7FD012179
:102CF0003448FEF7C9FD01213248FEF7ADFD07B0AB
:102D000000BD10B501212F48FEF700FE34480088B1
:102D1000401C3349088033480088401C31490880F2
:102D200031480078401C304908700A212E4800784C
:102D300002F016F8002902D101202C490870142154
:102D40002948007802F00CF8002902D10120284916
:102D5000087064212448007802F002F8002902D1AA
:102D6000012024490870C8211F48007801F0F8FFAD
:102D7000002905D101202049087000201A49087057
:102D80001848008819218901884217DB00BF00BF5D
:102D900000BF00BF00BFBFF34F8F00BF00BF00BF29
:102DA00016480949C86000BF00BF00BFBFF34F8F7E
:102DB00000BF00BF00BF00BF00BFFDE701201049FA
:102DC000087010BD0044004000ED00E00014024017
:102DD000001C0040001C0240001802403FFF0000A1
:102DE0004200002044000020460000204700002050
:102DF00048000020490000204A0000200400FA0595
:102E00004B00002070B50446454D002601221146B6
:102E10004448FEF795FE230002F0F3FF0504090F76
:102E2000151B21004048FFF774FE064617E03E4898
:102E3000801CFFF76EFE064611E03B48001DFFF7C1
:102E400068FE06460BE03848801DFFF762FE064626
:102E500005E035480830FFF75CFE064600BF00BFBE
:102E60003605360D28463043054630482D49403159
:102E700008622C4885622D48401E086270BD70B5FE
:102E80000446274E0025002C05D127481030FFF7B7
:102E900040FE054604E024481430FFF73AFE05469C
:102EA000ED05ED0D30462843064620481D494031CA
:102EB00008621C4806631D48401E086200BF19488E
:102EC000006B0121090308400028F8D170BD1449A6
:102ED0000A4602431146154A124B40331A62114A00
:102EE0005162124A521E1A62704710B50020FFF755
:102EF00089FF0120FFF7C3FF0C480A4940310862EF
:102F00000848006A064985310843064908620748AF
:102F1000401E0449403108620120FFF7D8FF10BD70
:102F20000000695A00000240C00000189966AA55C6
:102F30001020C043234988602348C860FFF7D5FFAD
:102F4000012022490870FFF73EFE00F062F800F011
:102F50009AFBFFF711FDFFF7AAFE1D48FFF72DFCB6
:102F60001C48FFF72AFC1C481C4908801C491B48C8
:102F7000FFF734FA00F0DDF8002014490870012052
:102F8000184908701DE001F0E4FA01F089FD1648C7
:102F90000078002801D000F0F1FA144800780028E9
:102FA00004D000201149087000F07BFB1048008815
:102FB000002806D00E480088401E0D49088000F009
:102FC0000BFAE0E700000240E37CF3FF540000202E
:102FD0000018004000190040B70B0000C800002096
:102FE00000100040550000209C00002062000020DE
:102FF000440000201CB50021684601710121417187
:103000008171C171022000906946FE48FEF7A4FA62
:103010001CBD1CB5002168460171012141718171FF
:10302000C171082000906946F748FEF795FA042020
:1030300000906946F448FEF78FFA10200090694628
:10304000F248FEF789FA00216846C17120200090FD
:103050006946ED48FEF780FA402000906946EA484C
:10306000FEF77AFA01216846017100218171C17170
:10307000782000906946E648FEF76EFA4021E44861
:10308000FEF710FB2021E248FEF70CFB1021E04880
:10309000FEF708FB0821DE48FEF704FB1020009035
:1030A0006946D948FEF758FA1021D748FEF7F8FAD2
:1030B000202000906946D548FEF74EFAD1484030AE
:1030C0008068D4490840CF4940318860084680680C
:1030D000D1490843CB4940318860CC4840308068B2
:1030E000FF2109048843C949403188600846806847
:1030F000CA490843C54940318860C54840308068A6
:10310000C7490840C24940318860084680688860E5
:10311000BD4840308068C3490840BB4940318860A1
:1031200008468068FF2109050843B7494031886097
:103130001CBDBD480078002803D00420BB4908808E
:1031400003E04B20C000B9490880704710B5FFF775
:1031500004FC00F084FD0121B548FEF77DFBFFF77C
:10316000E8FF10BD10B5B348007808218843B14985
:1031700008700020B0490880B048007880088000BE
:10318000AE4908700020AE490870AE490870AE49DB
:103190008870C87010219C48FEF782FA00F0E3FFA7
:1031A00001F0DFFA10BD10B501209F490870FFF74C
:1031B000D9FFFFF71BFD10BD7047704710B50446DF
:1031C000A2480078002806D101F057F8E1208000DD
:1031D0009D49088010E09D480078012806D1E12033
:1031E000C0009949088001F072F805E0E120000173
:1031F0009549088001F095F810BD10B50446012CE2
:1032000002D101F08AFA01E001F07BFA8C480078E3
:10321000002810D18C48807800280CD100F0A3FF42
:1032200000208B49087080480078002803D1874827
:103230000078FFF7C3FF10BD10B58548007800285F
:103240000DD083484078002809D081484078401E3E
:10325000C0B27F494870002801D1FFF7CEFF10BDF2
:1032600010B5FFF7E9FF10BDF8B5002000908020F1
:1032700000F037FB0090009802F04FFA0446224617
:103280000B467448744901F0FBFF064601F00EFE40
:10329000F8BD10B501206C49887000F064FF402132
:1032A0005B48FEF7FDF969480078002804D1202129
:1032B0005748FEF7F5F90CE064480078012804D17E
:1032C00010215348FEF7ECF903E008215048FEF7BF
:1032D000E7F90F205C49C87010BD10B5FFF763FF18
:1032E00010BD10B556480078002854D15B480078CE
:1032F000002804D059480078401E584908705248A8
:10330000C078002822D150488078002805D11021AB
:103310003D48FEF7B7F900283DD14B48008800280A
:1033200002D1FFF7DAFF36E047480088401E80B23E
:1033300045490880002802D1FFF7CFFF2BE0424823
:103340000088032827D101F000FA24E03E48C07825
:10335000401EC0B23C49C870002812D101F0DDF90E
:1033600010212948FEF79EF902203C490870364892
:10337000008800280FD1FFF78CFF00203249C87069
:1033800009E03148C0780A2803D02F48C0780528C2
:1033900001D101F0CEF910BD10B500F021FBFFF70F
:1033A000A0FF10BD10B521480088002813D01F4889
:1033B0000088401E80B21D49088000280BD11A48A1
:1033C0000078002802D0FFF7EEFE04E00120164945
:1033D0000870FFF7E8FE10BD10B5214800780028FE
:1033E00009D120480078012805D008210648FEF7B9
:1033F0000FF9002802D102200C4908801A480078F1
:10340000002833E000100240001C0240001402407B
:10341000001802400F00FFFF0F10FFFFFFFF00FF2B
:10342000FF0F00F0FF0000F05500002052000020C8
:10343000004400409D000020A6000020A4000020C1
:1034400061000020600000205A0000206900002078
:103450005E0000203D0AD7A3703DC44068000020F4
:103460008000002056000020C300002004D09648B1
:103470000078401E9449087000F05FFE01F07BF96F
:1034800092480078012804D1002090490870FFF785
:1034900093FE8F480078012804D100208C490870E1
:1034A000FFF78BFE8B480078012804D10020894962
:1034B0000870FFF7D5FE88480078012809D1002060
:1034C0008549087085480088401C84490880FFF7BA
:1034D00063FF10BD10B582480078002801D0FFF7C7
:1034E000D8FE00207E4908707E49087010BD10B5D6
:1034F0007D480078212811D101F01BF97848007827
:10350000002809D179488078002805D178490870C9
:1035100008460078FFF752FE012010BD724800787F
:10352000222812D101F005F96D48007800280AD14F
:103530006E488078002806D101206D490870084641
:103540000078FFF73BFE0120E7E767480078232873
:1035500012D101F0EEF86248007800280AD16348E1
:103560008078002806D1022061490870084600785A
:10357000FFF724FE0120D0E70020CEE710B55D481C
:10358000007800285DD158480078512815D1574857
:103590008078002808D1FFF77CFE00F021FA00288F
:1035A0000BD101F0BAF808E0FFF7DCFD01F0C1F83B
:1035B000012050490870FFF7BCFD4B4800781128E6
:1035C00017D101F0B6F846480078002811D14748D5
:1035D000807800280DD146480078401CC0B244498C
:1035E0000870022801DD0020087041480078FFF7CC
:1035F000E5FDFFF77CFF3C480078302812D101F050
:1036000098F83748007800280CD13848807800288E
:1036100008D100F0A8FD00F016FE01203649087020
:103620001420487030480078312802D10120FFF77B
:10363000E4FD2D48007832281FD10020FFF7DDFD82
:103640001BE029480078F0210840302815D00020E0
:1036500028490870FFF74BFF00280ED100F0D9FD74
:1036600023480078FFF7AAFD002020498870102128
:103670002248FEF715F801F05CF8FFF75AFD00202C
:103680001949087010BD10B500F08DF900F018FD53
:103690000221194800F0B0FA00201449887008800F
:1036A00010BD704710B5002100220020144B1A787D
:1036B00004E0134B1B5C5940431CD8B2531E834299
:1036C000F7DC0F4CE15410BDC30000204700002080
:1036D00048000020490000204A000020500000203F
:1036E00061000020600000209C0000205A000020A3
:1036F00069000020550000205E000020001C0240F0
:103700000601002010B50446E007C00F002804D0D1
:103710000F220621DC48FDF7FFFF02202040002891
:1037200004D00F220321D848FDF7F6FF04202040E3
:10373000002804D00F220421D348FDF7EDFF082014
:103740002040002804D00F220221D048FDF7E4FFDA
:1037500010202040002804D00F220321CB48FDF781
:10376000DBFF20202040002804D00F220521C7487D
:10377000FDF7D2FF40202040002804D00F22062170
:10378000C248FDF7C9FF10BD0146002000BFCA07AF
:10379000D20F002A00D004E04908421CD0B2082809
:1037A000F5DB00BF704710B504462046FFF7ECFF7D
:1037B00003461B02184610BD30B589B004462046AA
:1037C000FFF7F1FF85B20020049001900320000272
:1037D00005900020029003900795402C01D0202CEA
:1037E00004D1402006904001089004E0002006909B
:1037F0000120C002089006A9A548FCF7F4FC01A925
:10380000A348FCF705FD2046FFF77CFF0022214678
:103810009F48FCF7DDFD01219D48FCF716FD09B02E
:1038200030BD10B588B0044600200390012080020E
:1038300000902F200002049000200190029006903A
:103840000590079005A99248FCF7CDFC6946904881
:10385000FCF7DEFC2046FFF755FF21468C48FCF7BD
:10386000F4FD01218A48FCF73EFD00218848FCF761
:103870003AFD012221468648FCF72BFD01218448B0
:10388000FCF7E3FC08B010BD10B504462078FFF744
:10389000C8FF7F48FCF7FFFC00BF0121C9027C483C
:1038A000FCF7BFFD0028F8D07948C06860807848F0
:1038B0000069A08076484069E08075488069208171
:1038C0007348C06960817248006AA0817048406A8C
:1038D000E0816F48806A208200216D48FCF7B5FCCA
:1038E00010BDF1B582B008266A4F00200190002576
:1038F0000298FFF761FF00BF6548FCF7CCFC00BFF2
:103900006348FCF7CDFC0128FAD03046711ECEB2D8
:1039100008280BDA5E48FCF702FD0446BC4200D8DA
:1039200027460198844200D301942D19002EE3D13B
:1039300000215748FCF789FCED1B01982D1A052141
:10394000284601F003FA80B2FEBD10B503460024FC
:103950001846FFF719FF044661004F48405A10BD52
:1039600010B5044610214948FDF79AFE0F204B4937
:10397000C87001204A4908704A480078844202D140
:103980000020C04310BD032C01D0042C02D100F054
:1039900051FD03E0022C01D100F053FD41480470B9
:1039A0000020C043EEE700203F4908803F490880DF
:1039B00001203F4908807047F8B5044600254020A3
:1039C000FFF78FFF0546284602F012F90746214609
:1039D00002F0D2FA06468B21C90501F0EFFFF8BDCF
:1039E000F0B585B0002700242C488078002848D006
:1039F00030480078002844D1FFF736FC04462046C2
:103A0000FFF7DAFF07462146384601F0D7FF01905D
:103A100001F0AAFF0546284A284B01F081FE0391D8
:103A2000029001F043FA0746384601F09DFF054633
:103A3000234A244B02F0F4F904D80220FFF790FF48
:103A400005B0F0BD17480078022812D1384601F0C1
:103A50008BFF05461A4A1C4B02F014FA09D810488D
:103A60000078002801D000F058FEFFF733FD002059
:103A7000E6E70B480078002801D000F04EFEFFF783
:103A800029FD0020DCE7000000180240001C024075
:103A9000002C0040FFFF0000E20000205A00002040
:103AA00061000020600000206A0000206C000020FF
:103AB0006E000020680000203D0AD7A3703D04403E
:103AC000B0726891ED7CEB3FED7CF33F08B50320CD
:103AD0004002FEF71BFC1C2168460170002141706A
:103AE00081700121C170FEF716FC08BD0EB5BC2027
:103AF0000090012001900F20029069461048FDF7C8
:103B000095FAFFF7E3FF01210D48FDF7B2FA012115
:103B10000B48FDF79AFA20210948FDF7A2FA0EBDDD
:103B200010B501210648FDF7A4FA10BD10B50448F0
:103B3000FDF7A1FAFFF70AFB01200249086010BD5A
:103B4000002800407400002008B503204002FEF762
:103B5000DDFB172168460170002141708170012151
:103B6000C170FEF7D8FB08BD10B51720002809DB8F
:103B700000BF00BFC206D20E012191401A4A116057
:103B800000BF00BF00BFFFF7DFFF1848FDF7F2FDE1
:103B90000020FDF7F5FD0020FDF71CFE1448FDF7A1
:103BA000ECFDFDF708FEFDF702FE1048401EFDF794
:103BB000E1FD10BD10B50D48FDF7DCFD0C48FDF72B
:103BC000DCFD0A48401EFDF7D5FD10BD10B50748C5
:103BD000FDF7D0FDFDF70EFE0448401EFDF7CAFDBF
:103BE00001200449086010BD00E100E09966AA5573
:103BF0003E9600007800002010B50A4601460029D4
:103C000000D110BD02E000230B70491C1346521E68
:103C1000002BF8D100BFF4E710B5E6230021002205
:103C200007E0002201E0541CA2B29A42FBDB4C1CCC
:103C3000A1B28142F5DB10BD08B505200002FEF7F8
:103C400065FB0621684601700221417001218170E7
:103C5000C170FEF760FB6846FEF708FE08BD1FB5A1
:103C60000021684601738173022002900121684699
:103C7000C173417302A9FE48FDF76EFC012168463D
:103C8000017300218173022002906846C1730121F3
:103C9000417302A9F648FDF75FFC05220121F448B3
:103CA000FDF73AFD05220221F148FDF735FDE1203F
:103CB000000200900121684601710021417101213B
:103CC00081716A46EB4901208007FEF7CFF9FFF7C3
:103CD000B3FF012211469007FEF78BFA0122022161
:103CE0004807FEF786FA012211469007FEF76AFAA6
:103CF0001FBD70B504460D460120DF4908702946F6
:103D00002046FEF7B2FA70BDF8B507460D461646D6
:103D1000002400BF295D3846FFF7EBFF641CB44266
:103D2000F8D3F8BDD5480088D549081AD549088088
:103D30007047F8B5002400250026002700200090D9
:103D4000D1480078002872D0D0480778CD48008844
:103D5000CA4909884018CA49401A032805DC002FBF
:103D6000F1D0CB480078B84261D10020C649087034
:103D7000C84800780028E6D00020C6490870002412
:103D80000026C34800788742EED1C1480078032856
:103D90004DDB002506E0BD48405D0099484000909D
:103DA000681CC5B2BD42F6DB00980028DCD11021AA
:103DB000B948FFF721FFB948007800287ED00120DC
:103DC000B549887301242146641CB048465C36021C
:103DD0002146641C405C0643AF48468000256AE0EB
:103DE00030462841C007C00F002862D02B0002F0E7
:103DF00008F809060E161F273E464E575F0020465C
:103E0000611CCCB2A149085CA349087150E020466E
:103E1000611CCCB29D49085C9F49487148E020462E
:103E2000611CCCB29949085C9B49887140E04EE026
:103E30002046611CCCB29549085C9749C87137E0AF
:103E40002046611CCCB29149085C93490881084620
:103E5000007A0006000C0881084600892146621C91
:103E6000D4B28A4A515C08438B49088120E020463D
:103E7000611CCCB28549085C8749887218E02046ED
:103E8000611CCCB28149085C8349C87210E02046AD
:103E9000611CCCB27D49085C7F49087308E00DE0E5
:103EA0002046611CCCB27949085C7B49487300BF4D
:103EB00000BF681CC5B2102D92DB05E000207649DA
:103EC0008873724840780871012075490870F8BD00
:103ED00010B57448007800286BD067480078002837
:103EE00067D16D48807B00283DD06F48007800285E
:103EF00007D1BA214807FFF7FCFE01206A49087084
:103F000057E06148007800281AD168480078604975
:103F10000978884207DB002062490870634908700D
:103F20006149087045E0614802780078401C5F4BA9
:103F300018705648815C01208007FFF7DAFE38E0F0
:103F40005A48007852490978884232DA574802784C
:103F50000078401C554B18704C48815C012080074C
:103F6000FFF7C7FE25E050480078002807D1A521BB
:103F70008807FFF7BEFE01204B49087019E04C4846
:103F800000784A49097888420CDD48480278007870
:103F9000401C464B18704648815C01208007FFF7A3
:103FA000A8FE06E000203F490870404908703E49DD
:103FB000087010BD10B5002401208007006902219F
:103FC0000840022808D14007406908434907486172
:103FD00000202949087071E0012080070069C007AE
:103FE000C00F00286AD001208007406901210843E2
:103FF0008907486124480078002805D1012022491A
:10400000087000202249087001208007FEF72FF970
:10401000044620480078002816D11D490870AA2CB3
:1040200009D101201B4908701C4908701D490870FE
:104030001949887310E0A52C0ED10120154908708C
:1040400000201649087007E0114801780078401CEC
:104050000F4A10700D4844540D480078142802DBB4
:1040600000200B490870FFF75DFE0120114924E094
:10407000001002400018004086000020340000209C
:10408000102700007E00002080000020F2000020A9
:1040900083000020810000201A01002082000020FF
:1040A000620000208400002087000020850000209E
:1040B000060100207C00002000E0087010BD000018
:1040C00010B51821E248FFF797FD1821E148FFF7E6
:1040D00093FD1821E048FFF78FFD1821DF48FFF717
:1040E0008BFD10BD70B5044661786068405C6075FA
:1040F0006178A068455C002D02D1E068804701E04E
:104100002069804770BD10B50446207D002813D07B
:10411000607D00280DD160782178884202DB002084
:10412000607002E06078401C60702046FFF7DAFFA4
:1041300002E0607D401E607510BD10B5C848007873
:1041400000280FD0C7480068FFF7DDFFC6480068A9
:10415000FFF7D9FFC5480068FFF7D5FFC4480068DE
:10416000FFF7D1FF10BD10B50020BD490870202118
:10417000C048FDF797FA1021BE48FDF793FA0821D1
:10418000BC48FDF78FFA4021BA48FDF78BFAFFF7DC
:1041900097FF10BD10B504460120B14908700020FA
:1041A000607001202075002060702046FFF79AFFA4
:1041B00010BD10B54021AF48FDF774FA10BD10B521
:1041C0004021AC48FDF76CFA10BD10B52021A9487C
:1041D000FDF768FA10BD10B52021A648FDF760FA7A
:1041E00010BD10B51021A348FDF75CFA10BD10B545
:1041F0001021A048FDF754FA10BD10B508219D48C4
:10420000FDF750FA10BD10B508219A48FDF748FA9D
:1042100010BD10B50120934909680870964891496E
:104220000968486095488F490968886094488D49B5
:104230000968C86093488B49096808618948006823
:10424000FFF7A8FF10BD10B5012086490968087066
:104250008D488449096848608C48824909688860AB
:10426000874880490968C86086487E4909680861AE
:104270007C480068FFF78EFF10BD10B5002077491D
:10428000087508217B48FDF70DFA00207249087572
:1042900010217848FDF706FAFFF7BBFF01207249AD
:1042A000096808707A4870490968486079486E4919
:1042B0000968886078486C490968C86077486A4925
:1042C0000968086168480068FFF764FF10BD10B511
:1042D00000206249087508216648FDF7E3F90020CF
:1042E0005C49087520216348FDF7DCF9FFF791FF71
:1042F00001205E490968087069485C49096848609E
:1043000068485A4909688860674858490968C86018
:10431000664856490968086154480068FFF73AFF43
:1043200010BD10B500204B49087520215148FDF7FC
:10433000B9F900204849087510214E48FDF7B2F937
:10434000FFF767FF01204A49096808705848484943
:104350000968486057484649096888605648444992
:104360000968C860554842490968086140480068C2
:10437000FFF710FF10BD10B5FFF721FF00F0C1F9E6
:1043800010BD70B506460C461546364800680670E6
:1043900034480068446033480068856038483149D3
:1043A0000968C86046482F49096808612D480068B7
:1043B000FFF7F0FE2E48006806702D480068446044
:1043C0002B48006885603C4829490968C8603B481B
:1043D00027490968086126480068FFF7DBFE234883
:1043E00000680670214800684460204800688560C5
:1043F0002D481E490968C8602C481C490968086195
:104400001A480068FFF7C6FE17480068067016488D
:10441000006844601448006885601F4812490968B4
:10442000C8601E481049096808610F480068FFF716
:10443000B1FE70BD10B5234A23490320FFF7A1FF49
:1044400010BD10B5214A22490220FFF79AFF10BD86
:104450002C010020440100205C0100207401002098
:10446000880000208C000020900000209400002094
:104470009800002000180240686100006A61000096
:10448000B3410000BF410000866100008861000068
:104490006C6100006E610000CB410000D74100005C
:1044A0007061000072610000E3410000EF41000014
:1044B0007461000076610000FB41000007420000CB
:1044C000774300007C610000786100008361000098
:1044D000806100007C480078082188437A49087090
:1044E00000207A4908807A4800788008800078495E
:1044F0000870704774480078042188437249087036
:10450000002074490880744800788008800072494F
:104510000870704700B5FFF7EDFF70480088012173
:104520000904081A6B490880674800780421084389
:104530006549087000BD6948008801210904081A0E
:104540006249088060480078082108435E49087085
:10455000704710B55C48007808210840002815D045
:104560005F48FDF755F8002810D059480078C0077B
:10457000C00F002808D056480078022108400028C3
:1045800002D1512057490870FFF7A4FF4E48007828
:1045900004210840002815D05148FDF739F80028BB
:1045A00010D04D480078C007C00F002808D04A48F6
:1045B000007802210840002802D1112049490870E2
:1045C000FFF798FF08214648FDF722F8002839D167
:1045D0003D48007808210840002831D03C48007848
:1045E000C007C00F00280ED1384800883B49098811
:1045F000401880B2022825DD3548007801210843A3
:10460000334908701EE03248007802210840002833
:1046100018D12E48008831490988401880B2FF21FE
:10462000913188420EDD02202E490870284800781A
:10463000022108432649087000202449088001E02F
:10464000FFF779FF04212648FCF7E2FF002839D163
:104650001D48007804210840002831D01E48007809
:10466000C007C00F00280ED11A4800881B490988CE
:10467000401880B2022825DD174800780121084340
:10468000154908701EE014480078022108400028EF
:1046900018D11048008811490988401880B24B2170
:1046A000C90088420EDD30200E4908700A480078A3
:1046B000022108430849087000200649088001E0EB
:1046C000FFF728FF10BD00009D000020A60000207D
:1046D000A4000020A8000020AA0000204200002022
:1046E000001C02409C0000200021404A1180012152
:1046F000C1703F4949680978817000210170C1602B
:10470000704700B506203A4948703A4848603A4830
:1047100088600846FFF7E8FF00BD00B50220344975
:10472000487036484860364888600846FFF7DCFF26
:1047300000BD00B502202E4948703248486032481A
:1047400088600846FFF7D0FF00BD00B50A20284961
:1047500048702E4848602E4888600846FFF7C4FF1E
:1047600000BD10B500202249C8702A4A002140200F
:10477000FDF7A8FE10BD10B51D48C078012834D142
:104780001B488078002830D019488078401EC0B27D
:1047900017498870002828D108460078401CC0B20C
:1047A00008704978884208DB00201149C870194A0E
:1047B00000214020FDF786FE17E00D4840680C49B7
:1047C0000978405C0A498870084680680978405C2E
:1047D000012805D10F4A10494020FDF773FE04E07F
:1047E0000C4A00214020FDF76DFE10BD4400002062
:1047F0008C010020A6610000AC610000A2610000F5
:10480000A46100008A6100008C6100008E610000DC
:1048100098610000001000409A99993E10B5092156
:10482000FE48FFF7E9F910BD10B50921FB48FFF775
:10483000E3F90721FA48FFF7DFF910BD10B5202191
:10484000F848FCF71FFF002804D02021F548FCF7AA
:1048500029FF03E02021F348FCF722FF10BD10B52B
:104860000322F149EE48401C00F02FFA0120EC49E8
:104870000870FFF7D3FF0120E949887110BDF8B532
:104880000025002600270024E648C06810210840C3
:1048900000287DD0E548FDF78FFB86B2E44800880C
:1048A000801987B2E34887421BDBFCF7A9FFC5B23A
:1048B000E843401CD9494870DF480088DF49081A9E
:1048C000DF49088008460088002801D101200880BF
:1048D0000120D249C87100208871487104200870F5
:1048E000F8BDCE480078002802D1FFF797FFF7E720
:1048F000CA480078042875D1FCF782FFC5B2C748C2
:1049000080784419FF2C02DDC4490C7103E0204675
:104910003F38C2490871C14800790B2803DBBF4802
:104920000079312802DDFFF779FFD9E7BB4800792C
:104930001E280ADDB94880794006000EB749887103
:1049400008464079401C487109E0B448807940002D
:10495000401CB249887108464079401C4871AF48F4
:10496000407908285ADB0020AC494871AC4880796E
:10497000002820D108468179027A007A401CA74B92
:104980001872A94881541846007A032846DB00E0D3
:1049900055E0AC48007800280AD00322A249AA4872
:1049A00000F093F9FFF73AFF01209D49887197E7DE
:1049B000FFF755FF32E09948017A007A401C974A88
:1049C00010729948405C11468979884220D110467E
:1049D000007A032822DB9B480078002803D1FFF7E8
:1049E0003EFF1BE02AE003228F49974800F040F980
:1049F000002802D1FFF733FF10E003228A499248D2
:104A000000F063F9FFF70AFF01208549887167E725
:104A100082488279017A491E83484254E843401C07
:104A20007E494870844800888449081A844908806F
:104A300008460088002831D1012008802EE0FCF7CC
:104A4000DFFEC5B2E843401C744988707748FDF723
:104A5000B3FA01210904081A754908806F480078E3
:104A6000002800D13CE76D480078042816D16B4837
:104A700040784419FF2C02DD6849CC7003E02046E1
:104A80003F386649C8706548C0780B2803DB634827
:104A9000C078312802DDFFF7C1FE21E700BF1FE724
:104AA00070B5002400255E48007801287ED1674853
:104AB0000078002861D163480078002815D0584854
:104AC0004078634908705648807848705448C078E8
:104AD000F02108405E49887031205E490870FEF779
:104AE0002AF800204E49887178E0594800784C49EE
:104AF0004978884272D15648417849488078814245
:104B00006CD1534881784648C078F02210408142E9
:104B100064D14348C0780007000F012803D1512019
:104B20004C49087020E03E48C0780007000F02287A
:104B300003D121204749087016E03948C0780007A2
:104B4000000F042803D12220424908700CE03448A9
:104B5000C0780007000F082803D123203D490870C2
:104B600002E000202E498871FFF768FE1E203749B9
:104B7000087000202A49087070BD3548007828491F
:104B8000497888422AD13248417825488078814244
:104B900024D12F4881782248C078F02210408142E9
:104BA0001CD11F48C0780007000F00E01AE0012860
:104BB00011D01B48C0780007000F02280BD01848FE
:104BC000C0780007000F042805D01548C0780007FA
:104BD000000F082802D11E201C490870002010492F
:104BE00008703EE01648008800283AD00D48C0689A
:104BF00010210840002834D00F480488104800884D
:104C000000190E49401A85B21E2D2ADD09210348DC
:104C1000FEF7F2FF0020024908701DE09C01002011
:104C2000B000002000140240B8000020001900402D
:104C3000C6000020A21A0000340000201027000047
:104C4000AE0000205E000020BE000020C300002057
:104C5000380000209C000020887103490880034927
:104C6000087000BF88E70000AE000020C3000020ED
:104C7000034610B50B439B070FD1042A0DD308C878
:104C800010C9121FA342F8D018BA21BA884201D91C
:104C9000012010BD0020C04310BD002A03D0D3075F
:104CA00003D0521C07E0002010BD03780C78401C94
:104CB000491C1B1B07D103780C78401C491C1B1B8B
:104CC00001D1921EF1D1184610BDF8B5042A2CD39B
:104CD000830712D00B78491C0370401C521E8307B7
:104CE0000BD00B78491C0370401C521E830704D064
:104CF0000B78491C0370401C521E8B079B0F05D07C
:104D0000C91ADF002023DE1B08C90AE0FBF72AFAD4
:104D1000F8BD1D4608C9FD401C46B4402C4310C0D8
:104D2000121F042AF5D2F308C91A521EF0D40B78C8
:104D3000491C0370401C521EEAD40B78491C0370B6
:104D4000401C012AE4D409780170F8BD002203094F
:104D50008B422CD3030A8B4211D300239C464EE096
:104D600003460B433CD4002243088B4231D3030952
:104D70008B421CD3030A8B4201D394463FE0C30904
:104D80008B4201D3CB01C01A524183098B4201D31C
:104D90008B01C01A524143098B4201D34B01C01A07
:104DA000524103098B4201D30B01C01A5241C3087F
:104DB0008B4201D3CB00C01A524183088B4201D3EE
:104DC0008B00C01A524143088B4201D34B00C01ADA
:104DD0005241411A00D201465241104670475DE0EF
:104DE000CA0F00D04942031000D340425340002272
:104DF0009C4603098B422DD3030A8B4212D3FC221B
:104E0000890112BA030A8B420CD3890192118B4299
:104E100008D3890192118B4204D389013AD09211AF
:104E200000E08909C3098B4201D3CB01C01A52416A
:104E300083098B4201D38B01C01A524143098B4233
:104E400001D34B01C01A524103098B4201D30B011C
:104E5000C01A5241C3088B4201D3CB00C01A524141
:104E600083088B4201D38B00C01A5241D9D2430828
:104E70008B4201D34B00C01A5241411A00D2014665
:104E8000634652415B10104601D34042002B00D5CF
:104E90004942704763465B1000D3404201B5002091
:104EA000C046C04602BD7047704770470246C80FF3
:104EB000C00781434B0030B54B405B009B0D20D0B9
:104EC0001923DB06C91801231B05994220DB0324A3
:104ED000A40704251346AB400BD3002B04D1EB06EB
:104EE00013409B00E34204D40124640700231219F9
:104EF0005941FF231B0599420BD2C9000143500FB2
:104F000009E0CB0204D501430803024305D005485C
:104F100030BDFF21C905084330BD084607210905FA
:104F2000884330BD0000C07FF0B50C46871A9C4115
:104F30000D46861A9D4103D2C01BA141D21963417F
:104F40000D0D1F0DC94EEC1BAE435CD07F057F0DD0
:104F50000026002F51D02D05AC46A943DD020123C8
:104F6000ED0A1B051D4320231B1B24D41746E740D5
:104F7000381871412F46E740CC199D40281831461A
:104F800061410C0D27D161449A4013D50023401C88
:104F9000594152000ED14008400001224B005205F9
:104FA000D34207D305204007C14201D5B04900E0F4
:104FB000B0493046F0BD6B00002A00D001229A189B
:104FC0001F23203C1B1B01D5002302E0E5402818CD
:104FD00071410C0DD7D0012424050919C407CD0750
:104FE00040084908E40F28436144002CD5D0002430
:104FF000401C61419A40D0D1CDE76A05520DD9D10C
:10500000C90FC907D5E79C4D4E00002801D00124E7
:1050100000E0002434195F00002A01D0012600E0DE
:105020000026BE19954FAC420CD8AE420AD8B44205
:1050300006D001256D05EC42BCD010461946F0BDE6
:105040009942FCD000203946F0BDF0B51FB40C46A3
:105050000F46811A9F412546861A9D4106D2012599
:10506000ED076F40401ABC4152187B41210D1E0DC7
:105070008D1BAC467D4D8D437ED075056D0D7CD06E
:105080000D05AE46AC431B031B0B794D52429D41AF
:10509000202366469B1B14D31746F740381800267A
:1050A0000090744160462F460741E41900989D40E6
:1050B0002818664116D4714671189A4025D50123E7
:1050C00020E093182A466A415200002B00D0521C5F
:1050D0001E23203E9B1B002B61DD3541EE17281857
:1050E0006641E8D5001876415B1C9A4000D3401C0D
:1050F0004B05F3181524E34010D3002B52D0714612
:105100007118D30FC01802D3491C05B0F0BD01239C
:10511000DB079A42F9D140084000F6E70122520528
:10512000B21801D1002853D00123CC0ADB029943E5
:10513000891E002A08D1020C03D0020C0004103989
:1051400002E00246002020390023550B05D112024F
:105150000823550B01D152010D23550C01D1120129
:105160001B1DD50C01D192009B1C150D01D15200C5
:105170005B1C2025EE1A01E02CE022E00546F540FC
:1051800015439840CA1AE10769181305C918002A7F
:10519000BBDA032040070818C10FC9070FE07146AA
:1051A0006118B2E7F10740080843711071444A00E2
:1051B0000CD001235B059A42A7D2C90FC907002072
:1051C000A3E74905490D26D1002001E00028F4D1CC
:1051D00000219AE7284D6600002801D0012100E057
:1051E000002171185F00002A01D0012600E000268E
:1051F000BE19224FA94210D8AE420ED8B14208D0F3
:1052000001256D05E94206D01946A8024140104625
:105210007BE79C4201D0214677E70020394674E7BE
:1052200010B50C465C4005D50124E4076340FFF748
:105230000CFF10BDFFF778FE10BD30B40C465C408B
:1052400004D50124E407634030BC6DE630BCFCE6C5
:1052500070B50124E40761400D465D4002D4FFF7BC
:1052600063FE70BD6340FFF7F0FE70BDFF070000F6
:105270000000F0FF0000F07F0000E0FF0000F87F7A
:10528000F0B5F94D0C091E092C402E402F468BB06D
:10529000A7437DD0B543FCD0002E7AD0002CFCD0A3
:1052A0000D465D40ED0F2543AC1BFF25AD04641991
:1052B0000894C502440DC9022143500DDC02044389
:1052C0000120C00701430443D2020191200C110CBC
:1052D00000958C46010423468B430A9161460904DC
:1052E000E24D8A430991010A7D44491980390978C0
:1052F00005464D4301266D18F605751B6943C90C1B
:10530000640B891C4C436418B5012C1B250C2E041E
:10531000B4434C434D43210C691889090591009D04
:10532000E90701D00121C90704912C4601996708BA
:10533000CD072F434C08059DE10B4D432D0C29460D
:105340006646754302950D4645432E46029D7D1BDC
:10535000B44100950D465D4301942C0C2F040D467D
:105360005543AE462D0C3D43029503947546049C6F
:105370002D04641B049406D2029C039D641C002629
:1053800075410395029401AC70CC009F7D1B01E038
:105390003EE162E1B4410904009507910194059949
:1053A000A4086143090C0C464443650BE7040C4612
:1053B00066467443A646640B3C43039502947446C8
:1053C000049DE4042C1B049406D2029C039D641CDF
:1053D000002675410395029401AC70CC009F7D1BA3
:1053E000B44101940C465C430095650FE7000C4600
:1053F0005443A646640F3C43039502947446049DAF
:10540000E4002C1B049406D2029C039D641C00261D
:1054100075410395029401AC70CC009F7D1BB44193
:10542000AE09AF06049DC900AD092F43049DA40633
:10543000AD060495079D344369180791059DE10B5E
:105440004D432D0C29466646754302950D4645434E
:105450002E46029D7D1BB44100950D465D4301948F
:105460002C0C2F040D465543AE462D0C3D430295A2
:1054700003947546049C2D04641B049406D2029C7C
:10548000039D641C002675410395029401AC70CC09
:10549000009F7D1BB44101948C050694079C890AEA
:1054A000611800950791019C0599A4086143090CB6
:1054B0000D464543680BEF040D46644665436C0B8F
:1054C0003C43049FED047D1BAC4602D20025641CC6
:1054D0006841009E019D371B854108465843019550
:1054E0000C46460FC5005443600F28436546E40050
:1054F0002C1B02D20025401C6E41019D3F1AB54174
:105500002846BD09800628438446A009BF064E02EE
:105510000699A40676180743079D002068410A995A
:10552000079019430020099B00906046FF19134320
:105530004041E20F64003A43A4460446D71A8C4126
:10554000A04203D90120009020463A46C70F941884
:1055500040416246D20F2243644664000494009C9A
:10556000BE466400D71AA446044602978C4177468B
:10557000002F01D1A04204D96046401C8446029A03
:105580002046C40FA64694184041049A0546D20FFF
:10559000224364466400D31A8D417146002901D12B
:1055A000A84202D928461A46641C1043012200284A
:1055B00000D0164361020020079B891904465C4114
:1055C0000223002C02DB491813466441089DCE0AD1
:1055D0002D145D194B056705E10A2C050D19089975
:1055E0003E43C9076940002B08D0934006D30022F0
:1055F000761C5141002B01D1760876001C4A002D03
:1056000043DB154241D0AA433FD030460BB0F0BD3A
:1056100006180D464D41174C7642AC411AD39518E9
:105620001C465C41134A6D42A24113D3012252052C
:105630004C00D4420AD15C00D4420BD04B4002D57E
:1056400092021143E2E749004908DFE75940C90FD8
:10565000C90718E000200849D8E7054801420DD1E4
:105660000342F7D0F2E700000000FF07C60E00007B
:105670000000F07F0000E0FF0000F87F1148594073
:105680000143C01241400020C0E70123089A9B0655
:105690009A4205DC032252078918C90FC907B5E7EA
:1056A000052252078918074A1143D2125140ADE72B
:1056B00070B515461C4602460B4628462146FFF7A4
:1056C000DFFD70BDFFFFFF7F1F22030C02D10F2201
:1056D000000402D0030E03D004E00020014670470E
:1056E0000002083A030F01D10001121F830F01D1FC
:1056F0008000921E002801DB4000521E1205511846
:105700004205C012411810467047C10FC90700D0AA
:105710004042012292071143D6E701218907D3E7CE
:10572000F0B58B4C0F09254689B0BD437BD01D09D0
:105730002646AE43FAD00E465E402740F60F3E4363
:10574000254071D024012142FBD0FF24AD19A404CF
:105750002D1B039501252D05DB02DB0AC9022B4316
:10576000C90A29431E010901040F130F0501214332
:105770001701880B820391432D098C46A90B1E4308
:105780008A039543B30B9A0396433F09BA0B9403DC
:10579000A74302962E467E430497B6464E19D71964
:1057A0000C460196544305977E43371B7646BF1B34
:1057B0003601B646BE0B361900967646BC0437193C
:1057C000009C01D3641C00946400002F01D00126CA
:1057D0003443029E049F754366467E4304967600DA
:1057E00034196E0034190094029C019E1C19664302
:1057F000751BAE46069465464519059C05956C4398
:10580000594375460891691A0191049E0146514316
:10581000A41B0491611A009C0791E10605D061095F
:105820000122114302E072E06EE06109089D002749
:105830002C0A2D066918049D7C412A0A2D06691838
:10584000019D6241AC0DAD026D185441079A910D56
:10585000920255196141029A644658435443069B8B
:10586000059A5A43121A131B9A0E9B015B187A4130
:10587000010B0005C3185141220A200644195A4160
:105880009A4200D2491C01204002814203D31523D1
:105890000226F64302E014230326F6432020C51A0D
:1058A000A9401746AF40DA400A4320460399D84042
:1058B0000914731819055118039A3843D207514037
:1058C000AC4009D00122944006D30022401C514133
:1058D000002C01D1400840001E4A934212D30122FD
:1058E00003989206904207DB0520400709181A48E2
:1058F0000143C012414004E0032040070818C10FD3
:10590000C907002009B0F0BD0020F107FAE705182B
:105910000C464C4111486D42A04115D394181A46CB
:105920005A410E48644290410ED301204A0040057E
:10593000824209D35A00824206D35940C90F084A0D
:10594000C90700201143DDE700200649DAE700001F
:105950000000FF07FE070000FFFFFF7F0000E0FFE1
:105960000000F07F0000F87F0121C90501234118E4
:1059700042001B06D3185B0E0AD0C1100722D206C4
:10598000891840075242D14201D552008918704708
:10599000090208D50146002A03D0C10FC90700201B
:1059A000704710467047420202D0002002497047FB
:1059B000072109050143F4E70000F87FF0B5FF2552
:1059C0002D04C609C209FF2704462E400137CB0922
:1059D0003E4348402A402B400746002A6BD0002B0C
:1059E00069D0AA4267D0AB4265D0002800DA3246BF
:1059F0000125ED0529432C4309022002090AD21A88
:105A00004B0C7F24E31A434C000A7C44E35C7D2466
:105A10002404121914145B00A218884201D3521CEA
:105A200000E0400049420C465C4324115C43DB012A
:105A30006415E318040A5C43C502200D0C46444378
:105A40006419250A5D432303EC0C0D4665430003EE
:105A50000019EB184C42A34201D35B18401CD4053B
:105A60002018002B07D05B00C91804D3401C002964
:105A700001D1400840003F2189048A4209D3002A0D
:105A800008DC1106090F04D0032149074018C00F94
:105A9000C007F0BD01224100120689187F2252067C
:105AA0009142F6D205214907C84201D59010F0BDB8
:105AB000FF20C005F0BD002F00DA32461648AA428A
:105AC00007D2AB4205D21902090E17D0F80FC00752
:105AD000F0BDFF2563002D06AB42F9D84900A9426D
